:020000040800F2
:1000000078F40120C9020008B55E0008494C0008D8
:10001000B15E000879120008796C00080000000049
:100020000000000000000000000000000D020008B9
:10003000BF1300080000000061020008DF5F000835
:10004000E3020008E3020008E3020008E3020008FC
:10005000E3020008E3020008C1130008E3020008FD
:10006000E3020008E3020008E3020008E3020008DC
:10007000E302000895120008E3020008E30200080A
:10008000E3020008E3020008E5100008E3020008AC
:10009000E3020008E3020008E3020008E3020008AC
:1000A000E3020008E3020008E3020008E30200089C
:1000B00079610008E3020008E3020008E302000897
:1000C000E30200084D4C0008E3020008E3020008C8
:1000D000E3020008E3020008E3020008E30200086C
:1000E000CB130008E3020008E3020008E302000863
:1000F000E3020008E3020008E3020008E30200084C
:10010000E3020008E302000889610008E302000836
:10011000E30200083565000899610008E302000861
:10012000E3020008E3020008E3020008E30200081B
:10013000E3020008E3020008E3020008E30200080B
:10014000E3020008E3020008E3020008E3020008FB
:10015000E3020008A5120008E3020008696C000829
:10016000E3020008E3020008E3020008E3020008DB
:10017000E3020008E3020008E302000800000000B8
:10018000E3020008E3020008E3020008E3020008BB
:10019000E3020008E3020008E3020008E3020008AB
:1001A000E3020008E3020008E3020008E30200089B
:1001B000E3020008E3020008E3020008E30200088B
:1001C000E3020008E302000800000000E302000868
:1001D000E3020008E3020008E3020008E30200086B
:1001E000E3020008E3020008E3020008E30200085B
:1001F000E3020008E3020008DFF80CD000F072FE12
:1002000000480047B198000878F401202B4B19688A
:100210000868B0E8F04F80F30988BFF36F8F4FF0A4
:10022000000080F311887047000000000648006855
:10023000006880F3088862B661B6BFF34F8FBFF3E2
:100240006F8F00DF00BF00BF08ED00E0DFF80C009B
:10025000016841F470010160704700BF88ED00E063
:10026000EFF30980BFF36F8F144B1A681EF0100F65
:1002700008BF20ED108A20E9F04F106008B44FF05D
:10028000500072B680F31188BFF34F8FBFF36F8FAA
:1002900062B60AF035FF4FF0000080F3118808BC09
:1002A00019680868B0E8F04F1EF0100F08BFB0ECF6
:1002B000108A80F30988BFF36F8F7047F400002025
:1002C000EFF3058070470000064880470648004766
:1002D000FEE7FEE7FEE7FEE7FEE7FEE7FEE7FEE7F6
:1002E000FEE7FEE701610008F90100082DE9F04F83
:1002F0006FF0030C2DED028BDFEDF88AB0F8008073
:100300005FEAD30BD0E901490CEB880C04EB0C0736
:1003100018BF4FEAD80E00F0458100BF91ED000AEA
:1003200001F1040C87ED000A91ED010A0CF10405BE
:1003300087ED010A9CED010AB0EE685A87ED020ACA
:1003400095ED010A291D87ED030A95ED020A07F1D3
:100350001C0687ED040A95ED030AF0EE686A87ED46
:10036000050A95ED040A5FEA0E0587ED060A9CED85
:10037000060AB0EE457A87ED070AD4ED002A94ED1F
:10038000012AD4ED021A94ED031AD4ED040A94ED77
:10039000050A94ED063A06F10407CC46F0EE454A0C
:1003A000B0EE458AF0EE455AF0EE457AB0EE456A79
:1003B00004F11C0601F114017ED000BF9CED004A3F
:1003C000D6ED003A0CF1040A42EE846A02EE045AB9
:1003D00001EE847A41EE044A00EE848A40EE045A2B
:1003E00043EE047A03EE846A9AED004AD6ED012AC0
:1003F00006F1040C42EE046A01EE845A01EE047A1E
:1004000040EE844A00EE048A43EE045A43EE847AB6
:1004100002EE846A9AED014A0CF1040C0AF104061A
:100420009CED002A41EE846A01EE045A00EE847AC3
:1004300040EE044A03EE048A43EE845A42EE847A84
:1004400002EE046A96ED014ADCED011A6D1E41EEE2
:10045000046A00EE845A00EE047A43EE044A03EE86
:10046000848A42EE845A42EE047A01EE846A96ED62
:10047000024A9CED021A40EE846A00EE045A03EE32
:10048000047A43EE844A02EE848A42EE045A41EE34
:10049000847A01EE046A96ED034ADCED030A40EE2D
:1004A000046A03EE045A03EE847A42EE844A02EEB2
:1004B000048A41EE845A00E035E041EE047A00EE11
:1004C000846A96ED044A9CED040A06F1140A43EE90
:1004D000046A03EE845A02EE847A42EE044A01EE84
:1004E000848A41EE045A40EE847A00EE046A9AED62
:1004F000004A9CED053A0CF1140643EE846A02EEC4
:10050000845A02EE047A41EE844A01EE048A40EEF7
:10051000845A40EE047A03EE046A0AF1040C06F1F0
:1005200004067FF44BAF18F0070A24D0FCEC013A24
:10053000BAF1010AB6EC014A42EEA36A02EE235A6E
:10054000F0EE422A01EEA37AB0EE612A41EE234A90
:1005500000EEA38A40EE235A43EE237A04EE236A88
:10056000F0EE411AB0EE601AF0EE400AB0EE430A27
:10057000B0EE443ADAD1C2ED006A82ED015A82ED62
:10058000027AC2ED034A82ED048AC2ED055AC2ED39
:10059000067A1C322034BBF1010BA2EC016A7FF415
:1005A000BDAE00BF13F0070641D000BFB1EC010A99
:1005B000B8F1010309F1040C04F10405A7EC010AE8
:1005C000D4ED000A99ED001AB0EE680A00EE810A37
:1005D00028D0B3F1004F7DD2002B23DD13F0010FA3
:1005E000A5F10405ACF1040C08D0D5ED010A9CED91
:1005F000011A2D1D0CF1040C00EE810A5B1011D0C4
:1006000095ED011ADCED011AD5ED020A5B1E01EE33
:10061000210A9CED021A05F108050CF1080C00EE08
:10062000810AEDD1241D761EA2EC010ABED1A8F1EB
:1006300001054068AB0822D0B3F1004F59D2002B1E
:100640001DDD224601469C4692ED000ABCF1010CDC
:1006500081ED000A92ED010A81ED010A92ED020A94
:1006600081ED020A92ED030A02F1100281ED030A04
:1006700001F11001E8D104EB031400EB031015F0B5
:10068000030104BFBDEC028BBDE8F08FB1F1004F58
:1006900047D200291BDD11F0010FA4F10402A0F1E3
:1006A000040005D092ED010A80ED010A001D121D23
:1006B00049080CD092ED010A02F1080280ED010A0E
:1006C000083092ED000A491E80ED000AF2D1BDEC1F
:1006D000028B00E004E0BDE8F08F000000000000A5
:1006E000F5EC010A5B1EBCEC011A00EE810AF7D1A1
:1006F00098E794ED000A80ED000A94ED010A80ED80
:10070000010A94ED020A80ED020A083094ED030A12
:100710005B1E80ED010A04F1100400F10800E8D12D
:10072000ADE7B4EC010A491EA0EC010AF9D1CEE70D
:1007300070B504461D460498A260084421808000DC
:10074000011F184600F01EF9656070BDF0B44F1E21
:10075000002490ED000ABE08254600F1040C2ED0BE
:10076000DCED000A9CED011A0CF10800B4EEE00A81
:10077000F1EE10FAC4BF651CB0EE600AB4EEC10A17
:10078000F1EE10FAC4BFA51CB0EE410AD0ED000A8C
:1007900090ED011A00F1080CB4EEE00AF1EE10FA47
:1007A000C4BFE51CB0EE600AB4EEC10AF1EE10FA67
:1007B000C4BF251DB0EE410A241D761ED0D117F00E
:1007C000030018D0B0F1004F044619D20028C8BF6A
:1007D000002610DDDCED000AF4EEC00AF1EE10FA9E
:1007E00003D28D192D1AB0EE600A641E06F10106BF
:1007F0000CF1040CEED182ED000A1D60F0BC7047D4
:10080000FCEC010AB4EEE00AF1EE10FAC4BF0D1AD6
:10081000B0EE600A401EF3D1EDE700009FED330A11
:100820005FEA910C4DF8044D1DD0BCF1004F3FD252
:10083000BCF1000FC4BF0346644614DDD3ED000ACB
:1008400093ED011AD3ED021A00EEA00A93ED032AEC
:100850001033641E01EE010A01EEA10A02EE020A43
:10086000ECD100EB0C1011F003011CD0B1F1004FE2
:1008700035D2002917DD11F0010FA0F1040004D0DA
:10088000D0ED010A001D00EEA00A49080BD000BF00
:10089000D0ED010A90ED021A083000EEA00A491EC0
:1008A00001EE010AF4D182ED000A5DF8044B7047B5
:1008B000D0ED000A00EEA00AD0ED010A0830BCF12C
:1008C000010C00EEA00AD0ED000A00EEA00AD0ED67
:1008D000010A00F1080000EEA00AE9D1C3E7F0EC3C
:1008E000010A491E00EEA00AF9D1DCE70000000071
:1008F0002DE9F05F0546002092469B468846064655
:10090000814640241BE0284641464746224600F0E7
:10091000D1F853465A46C01A914110D31146184691
:10092000224600F0B8F82D1A67EB01084F46224620
:100930000120002100F0AFF817EB00094E41201E06
:10094000A4F10104DFDC484631462A464346BDE8AF
:10095000F09F40EA01039B0703D009E008C9121F7A
:1009600008C0042AFAD203E011F8013B00F8013B69
:10097000521EF9D27047D2B201E000F8012B491E95
:10098000FBD270470022F6E710B513460A4604462C
:100990001946FFF7F0FF204610BD421E12F8013F36
:1009A000002BFBD111F8013B02F8013B002BF9D1E0
:1009B0007047421C10F8011B0029FBD1801A7047B8
:1009C00010B5002200E0521C835C8C5CA34201D174
:1009D000002BF8D1D8B2E1B2401A10BD034611F88D
:1009E000012B00F8012B002AF9D11846704730B5C9
:1009F00005460020034600E05B1C934205D2EC5CF8
:100A0000C85C201A01D1002CF6D130BD70B50F4D55
:100A100000B92868002412E00A4602E09E4203D092
:100A2000521C1378002BF9D1DAB2224305D02BB136
:100A300024B1002100F8011B04E00446401C0678A4
:100A4000002EE9D12860204670BD00003001002052
:100A500070B5064606F040F9046805460A220021F2
:100A6000304600F037F82C6070BD30B50B460146BB
:100A700000202022012409E021FA02F59D4205D33D
:100A800003FA02F5491B04FA02F52844151EA2F1E7
:100A90000102F1DC30BD202A04DB203A00FA02F129
:100AA000002070479140C2F1200320FA03F319435C
:100AB00090407047202A04DB203A21FA02F00021FE
:100AC000704721FA02F3D040C2F12002914008435E
:100AD000194670472DE9F04791460F468046044677
:100AE000002614F8015B2DB100F020FA0068405D8B
:100AF000C007F6D12B2D02D02D2D18D0641E4A46EA
:100B00003946204600F016FA27B13968A14201D1D2
:100B1000C7F8008071054FF002040BD54042002851
:100B200003DD06F0D9F80460A007BDE8F08746F4BD
:100B30008066E4E70028F8DA06F0CEF804606FF08B
:100B40000040F2E72DE9FE4F804681EA0300C00F26
:100B50000C46009021F0004123F00045B8EB020064
:100B6000A94105D24046214690461C460B46024606
:100B700023F00040104347D0270DC7F30A00C3F30A
:100B80000A510290401A019040286BDAC3F3130017
:100B900040F4801B0098924620B10023D2EB030A58
:100BA00063EB0B0B01985946C0F140025046FFF72A
:100BB00072FF06460D4650465946019A00F0A4F9C8
:100BC00010EB08006141002487EA115284EAE773C0
:100BD0001A4340D0009A62B3019A012A4FEA0752A1
:100BE00015DC001B61EB02014FF0004202EA0752E4
:100BF000CDE90042001C41F5801132462B4600F041
:100C0000F7F903B0BDE8F08F40462146F9E7001B35
:100C100061EB0201001C41F5801300185B412018B4
:100C2000A2F5001747EB030140EAD570B6196D41F4
:100C300011E06D084FEA360645EAC0754FEA0752E3
:100C4000001B61EB0201001C41F5801149084FEACD
:100C500030000019514132462B4603B0BDE8F04F39
:100C600000F0B7B90098012240000023D0EB020247
:100C700063EBE073009821464FEAE074B8EB0000A4
:100C800061EB0401E9E783F000435BE781F0004199
:100C900058E72DE9FE4F81EA030404F0004421F0F7
:100CA000004100944FF0000B23F0004350EA010490
:100CB0005ED052EA03045BD0C3F30A54C1F30A5571
:100CC0002C44A4F2F3340194A0FB0254C1F31301A9
:100CD00041F48011C3F3130343F4801301FB024476
:100CE00000FB034E840A970A44EA815447EA83577B
:100CF000A4FB076802958D0A05FB07854FEA932C34
:100D000004FB0C542705029D4FEA065847EA1637A4
:100D1000B5EB08056EEB070C870E920E47EA8117BC
:100D200042EA8312A7FB0201B6EB0B0164EB00045D
:100D30002B0D43EA0C335E1844EB1C50DA46514647
:100D4000E7FB0201C5F313044FEA0B3343EA1453E4
:100D50004FEA0432019C43EA0603A4F10C04029416
:100D6000009CCDE900B400F043F903B0BDE8F08F7A
:100D700000200146F9E72DE9F04D81EA030404F073
:100D8000004B21F0004514464FF0000A23F00041CB
:100D900050EA050220D054EA01021DD0C5F30A57DB
:100DA0000246C5F31303C1F31300C1F30A5640F41E
:100DB000801543F48013A7EB0608101BD64608F2F3
:100DC000FD3873EB050002D308F1010801E0921829
:100DD0005B41B8F1000F03DA00200146BDE8F08D59
:100DE00000204FF48011064684460EE0171B73EB7B
:100DF000050705D3121B63EB050306434CEA010C00
:100E000049084FEA300092185B4150EA0107EDD1E2
:100E100052EA030012D082EA040083EA0501084383
:100E200005D0101BAB4106D20122002306E00022B0
:100E30004FF0004302E06FF0010253101AEB06007E
:100E40004CEB085110EB0A0041EB0B01BDE8F04DF3
:100E500000F0BFB870B521F0004303430CD0C1F3DC
:100E60000A550024D5EB040564EB0403D617AD1A2C
:100E7000B34102DB0020014670BD201841EB025156
:100E800070BDC1F30A52C1F3130140F2FF3341F4C4
:100E900080119A4202DA00200146704740F2334343
:100EA0009A42A2F2334202DC5242FFF703BEFFF73E
:100EB000F2BD000030B5041E71F1000404DB4FF0F8
:100EC0000044404264EB0101141E73F1000405DB91
:100ED0001C464FF00043524263EB0403994208BFA3
:100EE000904230BD064C074D06E0E06840F001033B
:100EF00094E8070098471034AC42F6D3FFF780F926
:100F00009C100108BC100108202A06DBCB17203AF0
:100F100041FA02F043EAE07306E041FA02F3D040FE
:100F2000C2F12002914008431946704700487047BB
:100F30008C1001082DE9F05F8246007800271546E5
:100F40008B460AF10104B946302801D09DB113E067
:100F500014F8010B0127782803D0582801D045B197
:100F60000AE00DB1102D07D10027102514F8010B50
:100F700002E0082500E00A250026B0460EE005FB49
:100F8000080005FB06F1012701EB10461FFA80F867
:100F9000B6F5803F00D3B94614F8010B294600F09E
:100FA00075F80028EBDABBF1000F05D00FB1641E15
:100FB00000E05446CBF80040B9F1000F06D005F030
:100FC0008BFE02210160C81EBDE8F09F48EA064082
:100FD000FAE710B5141E73F1000408DA401C41F161
:100FE000000192185B411A4301D120F0010010BDAD
:100FF0002DE9F04D92469B4611B1B1FA81F202E023
:10100000B0FA80F220329046FFF745FD04460F46C5
:1010100040EA0A0041EA0B0153465A46084313D0FE
:10102000114653EA010019D0C8F140025046FFF7BB
:1010300041FD05460E46504659464246FFF72BFDF8
:10104000084305D0012004E020463946BDE8F08D74
:101050000020054346EAE0762C4337430A986305AF
:10106000E40AA0EB08000022FD0A44EA47540A30D3
:1010700002D500200146E9E7010510196941DDE9C3
:10108000084500196941BDE8F04DA2E73A2800D2B1
:10109000303820F02002412A01D3A2F137008842E3
:1010A00001D34FF0FF30704730B58C1810F8012B8A
:1010B00012F00F0301D110F8013B120906D110F80C
:1010C000012B03E010F8015B01F8015B5B1EF9D115
:1010D00001E001F8013B521EFBD1A142E6D3002002
:1010E00030BD000010B5024800F063FB10BD0000E9
:1010F000CC0600205749096821F44031564AC2F80D
:1011000004131146D1F8041342681143514A116087
:101110000168496821F480710268516001684A6879
:10112000016942EA0121026851600168496821F0C1
:101130004071026851600168496882681143026821
:1011400051600168896821F400610268916001685A
:101150008968C268114302689160404A816A91427D
:1011600018D00168896821F0706102689160016897
:101170008968826A1143026891600168896821F078
:1011800040510268916001688968C26A114302682F
:1011900091600BE00168896821F0706102689160DC
:1011A0000168896821F0405102689160016889688E
:1011B00021F002010268916001688A68816942EA4F
:1011C000410102689160016AA1B10168496841F476
:1011D0000061026851600168496821F46041026859
:1011E000516001684A68416A491E42EA4131026819
:1011F000516005E00168496821F4006102685160AE
:101200000168C96A21F470010268D1620168CA6A82
:10121000818B491E42EA01510268D16201688968E6
:1012200021F400710268916001688A68016B42EAEA
:101230004121026891600168896821F48061026837
:10124000916001688A68416942EA8121026891607F
:101250007047000004230140002001400100000FFE
:1012600010B501220249034803F085FB10BD0000C0
:101270003C0000200C0A002000BFFEE79FED030B9E
:1012800000F5806181ED960B7047000017A545E0E1
:101290000469F6BF10B5024800F048FC10BD00001C
:1012A000AC07002010B5024800F040FC10BD000063
:1012B0007C0A00200146087810381823B0FBF3F2AE
:1012C0000848805CC865032A05D908686FF30900DF
:1012D000001D886503E008686FF309008865886D64
:1012E00070470000F00E0108014600208A6A8B69F1
:1012F000CBB932B1012A0DD0022A03D0032A10D172
:101300000EE000BFCB6A03F08073B3F1807F00D1A1
:10131000012007E0CB6AB3F1C07F00D1012001E0DA
:1013200000E000BF34E08B69B3F5005F1AD132B141
:10133000012A07D0022A03D0032A11D10AE000BFF4
:1013400001200EE0CB6A03F08073B3F1807F00D1FF
:10135000012006E0CB6AB3F1C07F00D1012000E09C
:1013600000BF15E032B1012A05D0022A04D0032AB9
:101370000CD103E000BF00BF012008E0CB6A03F0FE
:101380008073B3F1807F00D1012000E000BF00BF77
:10139000704730B50468246824F4802405682C6004
:1013A000046863608468402C04D10468A260046807
:1013B000E16003E00468A1600468E26030BD70474A
:1013C00010B5012000F0B0FD10BD10B54FF4005075
:1013D00000F0AAFD10BD000010B504A106A000F0A9
:1013E00039F807A10BA000F035F810BD41540D0DE0
:1013F0000A4F4B0D0A00000041540D0A0000000086
:1014000041542B434D4746203D20310D0D0A4F4B93
:101410000D0A000041542B434D4746203D20310D1D
:101420000A00000070B504462046FFF7C2FA60B11A
:101430002046FFF7BEFA85B2C8232A462146044853
:1014400003F004FB08B9012070BD0020FCE7000098
:101450002C09002070B59AB004460D461548007856
:1014600030BB2046FFF7A5FA10B32046FFF7A1FADC
:1014700086B2C823324621460F4803F0E7FAB8B9CE
:101480002846FFF796FA86B24FF4FA73324601A95E
:10149000094803F0E7F92846FFF78BFA064632467B
:1014A00001A92846FFF7A3FA10B901201AB070BDB0
:1014B0000020FBE76C0000202C0900202DE9F04300
:1014C0002DED028BEBB08046894615461E46002462
:1014D00027E09FED360B684600EBC40080ED000B63
:1014E00000271BE0684600EBC40090ED000B3520A0
:1014F00000FB074008EBC00090ED001B05EBC700A8
:1015000090ED002BB8EE003B22EE032B01EE020B18
:10151000684600EBC40080ED000B7F1C022FE1DB6E
:10152000641C352CD5DB9FED218B00240EE005EBF0
:10153000C40090ED001B05EBC40090ED002BB0EE55
:10154000480B01EE020BB0EE408B641C022CEEDB6C
:10155000002413E0684600EBC40090ED000B30EE71
:10156000080B09EBC40090ED001B30EE010BB1EE4F
:10157000400B06EBC40080ED000B641C352CE9DB4E
:1015800000240CE006EBC40090ED001BB0EE410B14
:1015900005F086FD06EBC40080ED000B641C352CC5
:1015A000F0DB6BB0BDEC028BBDE8F0830000000007
:1015B000000000007047000018B5024600200090AF
:1015C00000BF92F83C00012801D1022018BD012083
:1015D00082F83C0000BF0868092822D91068C0685A
:1015E0000B780A3B03EB43040723A340984313689B
:1015F000D860594B0868984207D11068C0680B7AC8
:1016000040EA03601368D8601FE00B780A3B03EBE5
:101610004303886898401368DB6818431368D860F0
:1016200013E0106800690B7803EB43040723A34021
:101630009843136818610B7803EB4303886898405C
:1016400013681B691843136818614868072817D284
:101650001068406B0B795B1E03EB83041F23A340D0
:10166000984313685863088880B20B795B1E03EBBC
:101670008303984013685B6B18431368586331E029
:1016800048680D2817D21068006B0B79DB1F03EB3D
:1016900083041F23A340984313681863088880B20B
:1016A0000B79DB1F03EB8303984013681B6B184314
:1016B0001368186316E01068C06A0B790D3B03EBE2
:1016C00083041F23A34098431368D862088880B21C
:1016D0000B790D3B03EB830398401368DB6A1843D7
:1016E0001368D8621D4B1068984208D10868122808
:1016F00005D11B48006840F48000C3F80403174B71
:101700001068984220D1144B0868984202D00868AB
:10171000112819D11248006840F40000104B1860DD
:101720000D4B086898420FD10E4800680E4BB0FB75
:10173000F3F000EB80004000009002E00098401EB3
:10174000009000980028F9D100BF002082F83C00EA
:1017500000BF00BF3AE70000120000100020014067
:1017600004230140CC00002040420F001CB5044679
:1017700000200090204600F018F8019000236A46EF
:1017800001A9074800680AF011F8009838B14FF035
:10179000805004490860BFF34F8FBFF36F8F1CBDAB
:1017A000AC00002004ED00E0704701460868C06C02
:1017B000704770B504460025002620680068C0F315
:1017C000400520684068C0F3401695B38EB3206C86
:1017D00000F0100018B9206C40F4007020642068FC
:1017E000806800F04050E8B9A069D8B92068C06AA4
:1017F00000F4700020B12068806800F4806088B92F
:101800002068406820F0200021684860206C20F4A7
:1018100080702064206C00F4805018B9206C40F077
:10182000010020642046FFF7A1FF6FF0120021683D
:10183000086020680068C0F3800520684068C0F335
:10184000C016E5B3DEB3206C00F0100018B9206CB0
:1018500040F4005020642068806800F4401038BBD9
:101860002068806B00F4401020B12068806800F48C
:101870008060E8B92068406800F48060C0B92068E2
:10188000806800F0405098B9A06988B92068406825
:1018900020F0800021684860206C20F48050206493
:1018A000206C00F4807018B9206C40F001002064B6
:1018B0002046FFF77FFE6FF00C002168086020686B
:1018C000006800F0010520684068C0F3801685B10B
:1018D0007EB12068006800F0010050B1206C40F437
:1018E00080302064204600F053F86FF0010021683A
:1018F000086020680068C0F3401520684068C0F3A5
:1019000080667DB176B1606C40F0020060646FF07B
:101910002000216808602046FFF746FF6FF0200096
:101920002168086070BD000070B5044600250CB940
:10193000012070BD1549A06A884200D000BF206C0C
:1019400030B90020606484F83C00204600F022F8A2
:10195000206C00F0100088B9206C20F4885040F012
:10196000020020642046FFF7C5FB00206064206C65
:1019700020F0020040F00100206400E0012500BFDB
:10198000002084F83C0000BF2846D2E70100000F89
:101990007047000010B586B004461349206888429D
:1019A0001FD100BF1148006840F480700F490860E3
:1019B0000846006800F48070009000BF00BF082057
:1019C0000190032002900020039001A9084800F034
:1019D000B9FA00220521122001F043F8122001F08B
:1019E00033F806B010BD000000200140443802402A
:1019F0000008024008B501460020009000BF91F8A1
:101A00003C00012801D1022008BD012081F83C00E2
:101A100000BF0868806800F00100A0B9086880680D
:101A200040F001000A68906031480068314AB0FB1C
:101A3000F2F000EB4000009002E00098401E0090A1
:101A400000980028F9D10868806800F0010000289B
:101A50004BD0086C40F20162904340F480700864FF
:101A60000868406800F4806028B1086C20F40050D9
:101A700040F480500864086C00F4805020B1486C39
:101A800020F00600486401E00020486400BF002008
:101A900081F83C0000BF6FF022000A6810600868FF
:101AA0004068154A10430A6850601448006800F006
:101AB0001F0058B90868806800F04050A8B908684D
:101AC000806840F080400A6890600EE00C4A086828
:101AD00090420AD10868806800F0405028B9086830
:101AE000806840F080400A68906000208CE7000029
:101AF000CC00002040420F002000000404230140DD
:101B000000200140014691F83500022803D08020D2
:101B1000486501207047052081F835000868006895
:101B200020F001000A6810600020F3E7F8B50446D1
:101B3000002000908C4800684FF41651B0FBF1F77C
:101B4000A56D2E6894F85C1008208840304098B14C
:101B50002068006800F0040070B12068006820F080
:101B600004002168086094F85C1008208840A86090
:101B7000606D40F00100606594F85C1001208840C1
:101B8000304068B12068406900F0800040B194F8AE
:101B90005C1001208840A860606D40F00200606524
:101BA00094F85C1004208840304068B120680068D8
:101BB00000F0020040B194F85C1004208840A86056
:101BC000606D40F00400606594F85C10102088405F
:101BD000304078B32068006800F0080050B394F8F3
:101BE0005C1010208840A8602068006800F4802005
:101BF00080B12068006800F4002028B9206CC8B1CA
:101C00002046216C884715E0A06C98B12046A16C55
:101C100088470FE02068006800F4807028B92068C9
:101C2000006820F0080021680860206C10B1204690
:101C3000216C884794F85C102020884030400028B0
:101C400065D02068006800F0100000285FD094F88C
:101C50005C1020208840A86094F83500052828D121
:101C60002068006820F0160021680860206840693C
:101C700020F0800021684861206C08B9A06C28B170
:101C80002068006820F008002168086094F85C1063
:101C90003F208840A86000BF002084F8340000BFC7
:101CA000012084F83500206D10B12046216D884751
:101CB000F8BD2068006800F4802080B120680068CA
:101CC00000F4002028B9606C10B12046616C884790
:101CD0001DE0E06BD8B12046E16B884717E0206833
:101CE000006800F4807068B92068006820F0100077
:101CF0002168086000BF002084F8340000BF012084
:101D000084F83500E06B10B12046E16B8847606DC8
:101D100038B3606D00F00100F0B1052084F83500A3
:101D20002068006820F001002168086000BF00986A
:101D3000401C0090B84200D905E02068006800F01F
:101D400001000028F3D100BF00BF002084F8340058
:101D500000BF012084F83500E06C10B12046E16C32
:101D6000884700BFA4E70000CC0000202DE9F04127
:101D70000446002500F0F8F9074614B90120BDE833
:101D8000F081606A00B100BF00BF002084F8340019
:101D900000BF022084F835002068006820F00100B0
:101DA000216808600AE000F0DFF9C01B052805D9AA
:101DB00020206065032084F83500E0E72068006893
:101DC00000F001000028EED1206805682148054098
:101DD000D4E901010843E1680843216908436169C6
:101DE0000843A1690843E1690843216A08430543A0
:101DF000606A042803D1D4E90B0108430543206835
:101E000005602068456925F00705606A0543606A3A
:101E100004280DD1A06A0543E06A48B12046FFF7C7
:101E200063FA28B140206065012084F83500A6E7F8
:101E3000206845612046FFF73DFA064694F85C109D
:101E40003F208840B06000206065012084F83500A4
:101E5000002094E73F8010E02DE9F04704460D464E
:101E600016461F464FF00008D4F8589000BF94F86B
:101E70003400012802D10220BDE8F087012084F857
:101E8000340000BF94F8350001282BD1022084F8DB
:101E90003500002060653B46324629462046FFF764
:101EA00078FA94F85C103F208840C9F80800206850
:101EB000006840F01600216808602068406940F022
:101EC000800021684861206C28B12068006840F0DB
:101ED0000800216808602068006840F0010021685F
:101EE000086006E000BF002084F8340000BF4FF017
:101EF00002084046C0E7000038B5044600200090C4
:101F0000B4F5005F04D169460548006809F0DAFCC1
:101F1000012C04D169460348006809F0D3FC38BDA0
:101F2000800000208800002010B5044604480068A6
:101F3000204020B1024804602046FFF7DDFF10BDBD
:101F4000143C0140F8B502460B4600210025002450
:101F5000002000BFE4E0012606FA01F51E6806EA4B
:101F60000504AC4271D15E68022E02D05E68122E6A
:101F700013D1CF0802F1200656F827004E07F70EBE
:101F80000F26BE40B0434F07FF0E1E69BE403043D0
:101F9000CF0802F1200646F8270010684F000326FC
:101FA000BE40B0431E7906F003064F00BE403043EA
:101FB00010605E68012E08D05E68022E05D05E6853
:101FC000112E02D05E68122E13D190684F000326A6
:101FD000BE40B0434F00DE68BE4030439060506862
:101FE00001268E40B0431E79C6F300168E40304362
:101FF0005060D0684F000326BE40B0434F009E683B
:10200000BE403043D0605E6806F08056B6F1805F17
:10201000A8D100BF444E366846F48046424F3E6029
:102020003E46366806F48046009600BF00BF3F4E2D
:102030008F0856F827008E07370F0F26BE40B04393
:102040003B4EB24202D100262EE068E0394EB24249
:1020500001D1012628E0384EB24201D1022623E008
:10206000364EB24201D103261EE0354EB24201D1B6
:10207000042619E0334EB24201D1052614E0324E57
:10208000B24201D106260FE0304EB24201D10726FE
:102090000AE02F4EB24201D1082605E02D4EB24291
:1020A00001D1092600E00A268F073F0FBE403043CA
:1020B0001E4E8F0846F82700274E3068A0435E6802
:1020C00006F48036B6F5803F00D12043224E3060C2
:1020D000361D3068A0435E6806F40036B6F5003F52
:1020E00000D120431C4E361D3060361D3068A043A1
:1020F0005E6806F48016B6F5801F00D12043164EA8
:1021000008363060361D3068A0435E6806F400165D
:10211000B6F5001F00D120430F4E0C363060491C2D
:102120001029FFF418AFF8BD4438024008380140C8
:10213000000002400004024000080240000C02407F
:10214000001002400014024000180240001C02402F
:102150000020024000240240003C01400AB181619D
:1021600001E00B048361704701480068704700007C
:10217000C0000020024692F8410020282DD100BF67
:1021800092F84000012801D102207047012082F816
:10219000400000BF242082F841001068006820F051
:1021A0000100136818601068006820F480501368FC
:1021B00018601068006808431368186010680068A9
:1021C00040F0010013681860202082F8410000BF31
:1021D000002082F8400000BFD7E70220D5E710B505
:1021E00002460B46002192F8410020282AD100BF68
:1021F00092F84000012801D1022010BD012082F890
:10220000400000BF242082F841001068006820F0E0
:102210000100146820601068016821F4706141EACF
:102220000321106801601068006840F00100146824
:102230002060202082F8410000BF002082F840008A
:1022400000BFDAE70220D8E77047704770B5044650
:102250002068856920680668606B20B1324629468F
:102260002046636B984770BD7047000010B5044668
:102270000CB9012010BD94F8410028B9002084F861
:102280004000204600F0D4FA242084F84100206861
:10229000006820F0010021680860606820F070602C
:1022A000216808612068806820F400402168886007
:1022B000E068012805D1A06840F4004021688860EA
:1022C00004E0A06840F4044021688860E0680228C7
:1022D00002D18002216848602068406813490843A1
:1022E000216848602068C06820F400402168C86008
:1022F000D4E904010843A16940EA01202168C860CB
:10230000D4E907010843216808602068006840F0AC
:1023100001002168086000206064202084F84100EA
:102320000020206384F8420000BFA3E70080000281
:102330007047000010B5044600200B4908600B49A7
:102340002068884204D108490948006809F0BAFAAF
:102350000548006838B14FF0805006490860BFF367
:102360004F8FBFF36F8F10BD040000200058004056
:102370008C00002004ED00E0704700002DE9F843D8
:102380000446894616461F46DDF82080002594F84D
:102390004100202875D100BF94F84000012802D1E7
:1023A0000220BDE8F883012084F8400000BFFFF759
:1023B000DBFE054619230122D1032046009503F0D8
:1023C000B1F908B10320ECE7212084F84100102086
:1023D00084F8420000206064666267856063608DF7
:1023E000FF280BD9FF2020853F48009094F8282033
:1023F000C3024946204603F07BF90AE0608D208540
:102400003948009094F8282003034946204603F0F9
:102410006FF943E02A464146204603F0D9F930B12E
:10242000606C042801D10120BBE70320B9E7616A91
:10243000481C6062087821688862608D401E608553
:10244000208D401E2085208D40BB608D30B34346DB
:10245000002280212046009503F064F908B1032092
:102460009FE7608DFF280DD9FF2020850020009078
:1024700094F828204FF080734946204603F038F93D
:102480000CE02FE0608D20850020009094F828203B
:102490004FF000734946204603F02AF9608D00286A
:1024A000B8D12A464146204603F067F930B1606C46
:1024B000042801D1012074E7032072E7202021685D
:1024C000C8612068406809490840216848602020A8
:1024D00084F84100002084F8420000BF84F84000E6
:1024E00000BF5EE702205CE70020008000E800FEFD
:1024F00010B5044600200B4908600B49206888424B
:1025000004D108490948006809F0DCF90548006869
:1025100038B14FF0805006490860BFF34F8FBFF3CA
:102520006F8F10BD00000020005800408C0000207C
:1025300004ED00E0704700002DE9FC5F0446894689
:1025400092469B46DDE90C780E9E002594F84100EA
:1025500020287DD117B1B8F1000F02D10120BDE8CC
:10256000FC9F00BF94F84000012801D10220F6E74B
:10257000012084F8400000BFFFF7F6FD054619234F
:102580000122D1032046009503F0CCF808B10320C6
:10259000E5E7222084F84100402084F84200002032
:1025A00060646762A4F82A8060635B4652464946CD
:1025B0002046CDE9006502F06BFF80B1606C042815
:1025C00006D100BF002084F8400000BF0120C6E70C
:1025D00000BF002084F8400000BF0320BFE7608DEB
:1025E000FF280CD9FF2020854048009094F828202F
:1025F0004FF080734946204603F07AF80BE0608D77
:1026000020853A48009094F828204FF000734946FE
:10261000204603F06DF800BF334600220421204617
:10262000009503F07FF808B1032098E72068406A1E
:10263000C1B2626A501C60621170208D401E2085FC
:10264000608D401E6085208D48BB608D38B300E0F2
:1026500049E03346002280212046009503F062F8CD
:1026600008B103207BE7608DFF280CD9FF2020856F
:102670000020009094F828204FF0807349462046AF
:1026800003F036F80BE0608D20850020009094F870
:1026900028204FF000734946204603F029F8608D4A
:1026A0000028B9D12A463146204603F066F830B1F9
:1026B000606C042801D1012051E703204FE720205E
:1026C0002168C8612068406809490840216848605D
:1026D000202084F84100002084F8420000BF84F8E4
:1026E000400000BF3BE7022039E7000000240080E3
:1026F00000E800FE2DE9FC5F04460F46904699462F
:10270000DDE90C564FF0000AD34694F8410020282A
:102710007ED105B116B90120BDE8FC9F2068806913
:10272000C0F3C03008B10220F6E700BF94F84000C3
:10273000012801D10220EFE7012084F8400000BF0A
:10274000FFF712FD8246222084F84100402084F8E1
:10275000420000206064656266853048E06230486F
:102760006063608DFF2804D9FF2020854FF0807BB7
:1027700003E0608D20854FF0007B19204B464246D8
:102780003946CDE9000A204602F082FE80B1606C35
:10279000042806D100BF002084F8400000BF0120BB
:1027A000BAE700BF002084F8400000BF0320B3E771
:1027B0001C48E16BC8631C48E16BC8640020E16BF6
:1027C0000864E16B0865238D226802F124012A4622
:1027D000E06BFFF741FB1548009094F828205B461A
:1027E0003946204602F084FF608D218D401A6085B5
:1027F00000BF002084F8400000BF2068006840F45B
:102800000040216808601121204602F0B9FA00E07A
:1028100001E0002080E702207EE700000000FFFFCB
:1028200095530008B34C0008974C00080024008022
:1028300010B586B0044635492068884243D103204C
:1028400001901220029001200390032004900420A4
:10285000059001A92E48FFF775FB00BF2D480068C1
:1028600040F480002B4908600846006800F48000AE
:10287000009000BF00BF2848284908604FF0606002
:102880004860002125488160C1604FF4806101618A
:10289000002141618161C16101624162FFF766FA15
:1028A00018B1A9211EA004F0E9F900BF1B48E0639C
:1028B000846300BF00220521212000F0D2F82120EE
:1028C00000F0C2F820E01A49206888421CD14FF479
:1028D00040400190122002900120039003200490B8
:1028E0000420059001A90A48FFF72CFB00BF094806
:1028F000006840F08070074908600846006800F0F2
:102900008070009000BF00BF06B010BD00580040AE
:10291000001402404038024040600240AC070020F2
:102920002E2E2F5372632F6932632E630000000036
:102930000060004070477047034800680349097809
:102940000844014908607047C0000020C80000200A
:1029500010B5032000F0C4F80F2000F005F800F0D7
:1029600029F8002010BD000070B504460E4800781C
:102970004FF47A71B1FBF0F00C490968B1FBF0F546
:10298000284601F03EFA08B1012070BD102C07D294
:1029900000222146501E00F064F80548046001E062
:1029A0000120F2E70020F0E7C8000020CC00002062
:1029B000C400002008B500BF2248006840F08050E5
:1029C000204908600846006800F08050009000BF71
:1029D00000BF00BF081D006840F48040091D08606A
:1029E0000846006800F48040009000BF00BF03204C
:1029F00000F076F8002211466FF00B0000F031F87D
:102A0000002211466FF00A0000F02BF80022114658
:102A10006FF0090000F025F800221146501F00F069
:102A200020F800221146101F00F01BF800220F2191
:102A3000901E00F016F800220F21501E00F011F831
:102A400008BD00004038024000BF00F01F02012115
:102A500091404209920002F1E022C2F8001100BF49
:102A600070472DE9F05F80460D461646002703F0BB
:102A700023FA074639462A46334601F00700C0F1DB
:102A8000070ABAF1040F02D94FF0040A01E0C0F1BD
:102A9000070AD14600F1040ABAF1070F02D24FF03B
:102AA000000A01E0A0F1030AD4464FF0010A0AFA35
:102AB00009FAAAF1010A0AEA020A0AFA0CFA4FF024
:102AC000010B0BFA0CFBABF1010B0BEA030B4AEA0F
:102AD0000B042146404603F0F7F9BDE8F09F0000E3
:102AE00000BF00F00702064B19684FF6FF031940BC
:102AF000044B0B4343EA0221014B196000BF7047AE
:102B00000CED00E00000FA0538B5002400BF2048B5
:102B1000006840F080501E4908600846006800F0D8
:102B20008050009000BF00BF1A48006840F4803019
:102B300018490860FFF718FB044607E0FFF714FB8D
:102B4000001BB0F57A7F01D9032038BD11484068D9
:102B500000F48030B0F5803FF0D10E48006840F4BA
:102B600000300C490860FFF7FFFA044607E0FFF762
:102B7000FBFA001BB0F57A7F01D90320E5E7054891
:102B8000406800F40030B0F5003FF0D10020DCE7F1
:102B900040380240007000402DE9F843044600260A
:102BA00000250027A846A946207800F0010088B13A
:102BB00000BFFE48006820F40000FC490860084699
:102BC0000068616B0843F949086000BF606B08B991
:102BD0004FF00108206800F40020B0F5002F13D159
:102BE000F2488430006820F44010E16B0843EF495C
:102BF00084310860E06BB0F5801F01D14FF001080F
:102C0000E06B08B94FF00109206800F48010B0F5BE
:102C1000801F13D1E5488430006820F44000216C07
:102C20000843E24984310860206CB0F5800F01D17F
:102C30004FF00108206C08B94FF00109206800F03E
:102C40008070B0F1807F01D14FF00108207800F052
:102C50002000202870D100BFD4483830006840F0F0
:102C60008050D249383108600846006800F0805032
:102C7000009000BF00BFCE48006840F48070CC498F
:102C80000860FFF771FA064607E0FFF76DFA801B50
:102C9000642802D90320BDE8F883C548006800F421
:102CA00080700028F1D0C1486830006800F4407599
:102CB00085B3208E00F44070A8422BD0BB4868300A
:102CC000006820F44075B9486830006840F48030EE
:102CD000B649683108600846006820F48030086012
:102CE00008460560006800F0010098B1FFF73CFA63
:102CF000064608E0FFF738FA801B41F28831884227
:102D000001D90320C7E7A94868300068C0F3400034
:102D10000028EFD000BF208E00F44070B0F5407F57
:102D20000BD1A248006820F4F810A24A216B114090
:102D300008439E49086006E010E09C48006820F4C3
:102D4000F8109A490860994868300068218EC1F3EC
:102D50000B01084395496831086000BF207800F0F6
:102D60001000102810D100BF90488430006820F077
:102D700080708E498431086008460068A16B084362
:102D80008A498431086000BF208800F48040B0F593
:102D9000804F09D185488830006820F44030616E4A
:102DA0000843824988310860208800F40040B0F56B
:102DB000004F09D17D488830006820F44020A16E82
:102DC00008437A4988310860206800F48030B0F503
:102DD000803F09D175488830006820F44010E16ECA
:102DE0000843724988310860206800F40030B0F56B
:102DF000003F09D16D488830006820F44000216F01
:102E000008436A4988310860207800F04000402873
:102E100009D166488830006820F00300616C0843DF
:102E2000624988310860207800F08000802809D14C
:102E30005E488830006820F00C00A16C08435B49B4
:102E400088310860208800F48070B0F5807F09D157
:102E500056488830006820F03000E16C0843534940
:102E600088310860208800F40070B0F5007F09D137
:102E70004E488830006820F0C000216D08434B495F
:102E800088310860208800F48060B0F5806F09D137
:102E900046488830006820F44070616D084343491B
:102EA00088310860208800F40060B0F5006F09D117
:102EB0003E488830006820F44060A16D08433B49DB
:102EC00088310860208800F48050B0F5805F09D117
:102ED00036488830006820F44050E16D084333499B
:102EE00088310860208800F40050B0F5005F09D1F7
:102EF0002E488830006820F44040216E08432B495A
:102F000088310860206800F48000B0F5800F09D196
:102F100026488830006820F08060A16F084323496C
:102F200088310860206800F40010B0F5001F0FD150
:102F30001E488830006820F00060E16F08431B499C
:102F400088310860E06FB0F1006F01D14FF00109E6
:102F5000207800F00800082801D14FF0010920680E
:102F600000F48020B0F5802F09D110488830006827
:102F700020F04070616F08430C4988310860206878
:102F800000F40000B0F5000F0AD10848883000684E
:102F900020F08050D4F8801008430449883108603C
:102FA000206800F08060B0F1806F05E008380240D2
:102FB00000700040FFFCFF0F08D1CC48006820F0F3
:102FC0000050D4F884100843C8490860206800F015
:102FD0000060B0F1006F0AD1C448001F006820F003
:102FE0000070D4F888100843C049091F08602068A1
:102FF00000F08050B0F1805F0AD1BC48001F00682B
:1030000020F08060D4F88C100843B849091F08608C
:10301000B8F1010F03D02068B0F1007F7ED1B34832
:103020009038006820F08060B04990390860FFF760
:103030009BF8064606E0FFF797F8801B642801D945
:10304000032028E6A94890380068C0F3C060002833
:10305000F1D1207800F00100B8B1606BA8B9A348A5
:103060000C380068C0F30145A0480C380068C0F374
:1030700003676068800140EA054040EA0761207A02
:1030800041EA007099490C390860206800F400207A
:10309000B0F5002F03D1E06BB0F5801F09D0206898
:1030A00000F48010B0F5801F24D1206CB0F5800FA3
:1030B00020D18E480C380068C0F301458B480C388D
:1030C0000068C0F302776068800140EA0541207B18
:1030D00041EA006040EA077084490C39086083487F
:1030E000001F006820F01F00616A491E08437F49E5
:1030F000091F0860206800F08070B0F1807F17D150
:103100007A480C380068C0F3036578480C380068CA
:10311000C0F3027760688101208A00E036E041EA6E
:10312000004040EA056040EA077070490C390860C9
:10313000206800F00070B0F1007F0DD1606881015F
:10314000208A41EA0041207B41EA0061207A41EA7D
:10315000007066490C39086064489038006840F097
:103160008060624990390860FEF7FEFF064606E07F
:10317000FEF7FAFF801B642801D903208BE55B482A
:1031800090380068C0F3C0600028F1D0B9F1010F99
:103190007ED156489038006820F0805053499039CD
:1031A0000860FEF7E1FF064606E0FEF7DDFF801B44
:1031B000642801D903206EE54C4890380068C0F3BC
:1031C00040700028F1D1206800F40020B0F5002FF5
:1031D00001D1E06B38B1206800F48010B0F5801F99
:1031E00022D1206C00BB414808380068C0F301457B
:1031F0003E4808380068C0F302776069800140EA01
:103200000541207E41EA006040EA077037490839ED
:103210000860081D006820F4F851A06A401E41EAC9
:1032200000203249091F0860206800F40010B0F542
:10323000001F19D1E06FB0F1006F15D12B4808388D
:103240000068C0F30365294808380068C0F30277B6
:1032500060698101208C41EA004040EA056040EA53
:103260000770224908390860207800F00800082813
:1032700020D11E4808380068C0F303651B48083891
:103280000068C0F301476069800140EA074000E040
:103290002AE040EA0561207F41EA007013490839BD
:1032A0000860081D006820F44030E16A08430F49B7
:1032B000091F08600D489038006840F080500B49A5
:1032C00090390860FEF750FF064606E0FEF74CFF17
:1032D000801B642801D90320DDE40448903800688D
:1032E000C0F340700028F1D00020D4E490380240B0
:1032F00070B504460D4600260CB9012070BD5C482F
:10330000006800F00F00A8420ED25948006820F073
:103310000F002843564908600846006800F00F0077
:10332000A84201D00120E9E7207800F0020002283D
:103330001DD1207800F00400042805D14D48006814
:1033400040F4E0504B490860207800F0080008285D
:1033500005D14848006840F4604046490860454847
:10336000006820F0F000A168084342490860207816
:1033700000F0010090B36068012807D13D4808388B
:103380000068C0F34040A0B90120B7E76068022898
:1033900007D1384808380068C0F3406048B90120B8
:1033A000ACE7344808380068C0F3400008B9012091
:1033B000A4E73048006820F00300616808432D4905
:1033C0000860FEF7D1FE064609E0FEF7CDFE801B41
:1033D00041F28831884202D903208FE707E025486F
:1033E000006800F00C006168B0EB810FEDD120485F
:1033F000006800F00F00A8420ED91D48006820F0B8
:103400000F0028431A4908600846006800F00F00C2
:10341000A84201D0012071E7207800F004000428C0
:1034200007D11448006820F4E050E16808431149CE
:103430000860207800F00800082808D10D480068CE
:1034400020F46040216940EAC1000A49086000F0A8
:103450003DF808490968C1F30311074A515CC840A7
:10346000064908600F20FFF77FFA002046E70000BA
:10347000003C024008380240F80E0108CC00002051
:103480000148006870470000CC00002000B5FFF73D
:10349000F7FF04490968C1F38221034A515CC8401F
:1034A00000BD000008380240080F010800B5FFF712
:1034B000E7FF04490968C1F34231034A515CC8403F
:1034C00000BD000008380240080F01082DE9F04750
:1034D000002400250026A1462548006800F00C00C5
:1034E00020B1042805D008283AD105E0DFF88490FF
:1034F00039E0DFF8849036E01D48001F006800F0D6
:103500003F041B48001F006800F4800078B11A488F
:103510001749091F0968C1F38811A0FB0170014612
:10352000224600233846FDF7E3F905460EE0114830
:103530000F49091F0968C1F38811A0FB01700146FA
:10354000224600233846FDF7D3F905460848001FF8
:103550000068C0F30140401C4600B5FBF6F902E0EC
:10356000DFF8109000BF00BF4846BDE8F0870000BC
:10357000083802400024F40040787D01F8B5044684
:1035800000260CB90120F8BD207800F001000028C9
:1035900071D0F848006800F00C0004280DD0F54800
:1035A000006800F00C00082813D1F248001F0068E2
:1035B00000F48000B0F5800F0BD1EE4808380068A9
:1035C000C0F34040002869D06068002866D101201F
:1035D000D9E700BF6068B0F5803F08D1E5480838FA
:1035E000006840F48030E349083908602EE06068E4
:1035F00068B9E0480838006820F48030DD490839AF
:1036000008600846006820F4802008601EE06068BA
:10361000B0F5A02F0DD1D7480838006840F48020BD
:10362000D449083908600846006840F480300860D2
:103630000CE0D0480838006820F48030CD490839C3
:1036400008600846006820F48020086000BF6068B9
:1036500090B1FEF789FD054606E0FEF785FD401BAB
:10366000642801D903208EE7C24808380068C0F3F7
:1036700040400028F1D011E0FEF776FD054606E057
:10368000FEF772FD401B642801D903207BE7B9488F
:1036900008380068C0F340400028F1D1207800F0DD
:1036A0000200022869D1B348006800F00C0058B14C
:1036B000B048006800F00C0008281CD1AD48001F7D
:1036C000006800F48000B0B9AA4808380068C0F368
:1036D000400020B1E068012801D0012053E7A5484F
:1036E0000838006820F0F800216940EAC100A149CB
:1036F0000839086041E0E06828B39E48083800684F
:1037000040F001009B4908390860FEF72DFD054691
:1037100006E0FEF729FD401B022801D9032032E70D
:10372000944808380068C0F340000028F1D0914860
:103730000838006820F0F800216940EAC1008D498E
:103740000839086019E08B480838006820F001004B
:10375000884908390860FEF707FD054606E0FEF7D0
:1037600003FD401B022801D903200CE781480838DB
:103770000068C0F340000028F1D1207800F0080074
:10378000082836D16069D0B17A486C30006840F0C2
:10379000010078496C310860FEF7E6FC054606E05A
:1037A000FEF7E2FC401B022801D90320EBE671483A
:1037B0006C300068C0F340000028F1D019E06D487B
:1037C0006C30006820F001006A496C310860FEF737
:1037D000CBFC054606E0FEF7C7FC401B022801D9DA
:1037E0000320D0E663486C300068C0F34000002836
:1037F000F1D1207800F00400042874D15D483830FD
:10380000006800F0805080B900BF5A483830006826
:1038100040F080505749383108600846006800F091
:103820008050009000BF00BF01265348006800F49C
:103830008070B0B95048006840F480704E4908600C
:10384000FEF792FC054606E0FEF78EFC401B64285E
:1038500001D9032097E64848006800F480700028EA
:10386000F2D000BFA068012808D142486830006843
:1038700040F001003F49683108602DE0A06868B958
:103880003C486830006820F001003A49683108601F
:103890000846006820F0040008601DE0A0680528C4
:1038A0000DD134486830006840F004003149683177
:1038B00008600846006840F0010008600CE02D48F0
:1038C0006830006820F001002A4968310860084625
:1038D000006820F00400086000BFA068A8B1FEF7EF
:1038E00043FC054609E02EE0FEF73EFC401B41F29A
:1038F0008831884201D9032045E61E4868300068B7
:10390000C0F340000028EFD013E0FEF72DFC054681
:1039100008E0FEF729FC401B41F28831884201D9BA
:10392000032030E6134868300068C0F340000028E8
:10393000EFD1012E07D10F483830006820F08050B9
:103940000C4938310860A069F0B30A48006800F0FB
:103950000C00082868D0A06902284DD10548083815
:10396000006820F08070034908390860FEF7FCFB0E
:1039700005460AE00838024000700040FEF7F4FBFC
:10398000401B022801D90320FDE529480068C0F347
:1039900040600028F2D1D4E907010843616A40EA97
:1039A00081110122A06AC2EB500041EA00412C20A3
:1039B000005D41EA00613020005D41EA00701C4971
:1039C000091D0860081F00E030E0006840F08070CA
:1039D000091F0860FEF7C8FB054606E0FEF7C4FBBA
:1039E000401B022801D90320CDE511480068C0F32F
:1039F00040600028F2D019E00D48006820F0807087
:103A00000B490860FEF7B0FB054606E0FEF7ACFB8D
:103A1000401B022801D90320B5E505480068C0F322
:103A200040600028F2D101E00120ACE50020AAE5C9
:103A30000038024070B504460B4616460025206843
:103A4000806A586020680069C0F30E0098602068A2
:103A500000680F4900EA0105C5F305401870C5F379
:103A60000620587005F07F00987005F48000000C67
:103A700018735EB9187802F03BFA1870587802F0A3
:103A800037FA5870987802F033FA9870002070BDB9
:103A90007F7F7F0010B504460CB9012010BD607F08
:103AA00020B900202077204600F04EF802206077F1
:103AB00000BFCA202168486253202168486200BFC5
:103AC000204602F02DFA40B100BFFF202168486275
:103AD00000BF042060770120E0E720688068194972
:103AE000084021688860216960680843616908436B
:103AF000216889680843216888602168E068086156
:103B000020680169208941EA004021680861206835
:103B1000C06820F080002168C8602068C06C20F078
:103B200008002168C8642068C06CA1690843216846
:103B3000C86400BFFF202168486200BF0120607791
:103B40000020ABE7BFFF8FFF054A0168914205D116
:103B50000449096841F40041024A116070470000BD
:103B600000280040703802402DE9F04104460D461F
:103B70001646002700BF207F012802D10220BDE8A1
:103B8000F0810120207700BF022060774EB968786D
:103B900000F01000102804D1687800F0EF000A301F
:103BA000687086B9E87802F0AEF90304687802F02C
:103BB000AAF943EA0023A87802F0A5F9034328787C
:103BC00043EA403709E0E8780004697840EA0120D8
:103BD000A9780843297840EA413700BFCA20216804
:103BE000486253202168486200BF204602F098F9DD
:103BF00060B100BFFF202168486200BF04206077E9
:103C000000BF0020207700BF0120B8E716483840E9
:103C1000216848602068C06820F080002168C86082
:103C20002068806800F0200080B9204600F0B8F8D5
:103C300060B100BFFF202168486200BF04206077A8
:103C400000BF0020207700BF012098E700BFFF20C1
:103C50002168486200BF0120607700BF0020207704
:103C600000BF00BF8BE700003FFFFF002DE9F041E0
:103C700004460D461646002700BF207F012802D1CA
:103C80000220BDE8F0810120207700BF022060778C
:103C9000CEB92068806800F0400000B102E000204A
:103CA000287300BF287802F02EF90304687802F028
:103CB0002AF943EA0023A87802F025F90343287B78
:103CC00043EA004716E02068806800F0400020B119
:103CD000287802F00DF9074602E00020287300BFA3
:103CE00028780004697840EA0120A9780843297BF4
:103CF00040EA014700BFCA2021684862532021687A
:103D0000486200BF204602F00BF960B100BFFF20FF
:103D10002168486200BF0420607700BF0020207740
:103D200000BF0120ADE71D483840216808602068C9
:103D3000806820F4802021688860D5E90401084368
:103D4000216889680843216888602068C06820F07D
:103D500080002168C8602068806800F0200080B979
:103D6000204600F01DF860B100BFFF2021684862C6
:103D700000BF0420607700BF0020207700BF012033
:103D80007FE700BFFF202168486200BF0120607705
:103D900000BF0020207700BF00BF72E77F7F7F0059
:103DA00070B5044600252068C06820F0A000216896
:103DB000C860FEF7D9F9054607E0FEF7D5F9401BC4
:103DC000B0F57A7F01D9032070BD2068C06800F08B
:103DD00020000028F1D00020F6E7042808D14FF099
:103DE000E021096941F004014FF0E022116107E090
:103DF0004FF0E021096921F004014FF0E022116148
:103E0000704770B504462546681EB0F1807F01D327
:103E100001200FE0681E4FF0E02148610F214FF0B4
:103E2000FF3002F051F800204FF0E02188610720B8
:103E30000861002070BD70477047000030B5024631
:103E40000B4600BF92F83C00012801D1022030BD92
:103E5000012082F83C0000BF106841681068846847
:103E60000F4D1068A84203D00E4D1068A84203D130
:103E700021F470015868014321F070011868014372
:103E800024F08004986804431068416010688460DE
:103E900000BF002082F83C0000BF00BFD7E7000051
:103EA000000001400004014010B504460CB9012097
:103EB00010BD94F83D0028B9002084F83C0020464D
:103EC00000F00CF8022084F83D00211D206802F06B
:103ED0006BF9012084F83D000020E9E738B504467D
:103EE00017492068884216D100BF1648006840F084
:103EF0001000144908600846006800F010000090A7
:103F000000BF00BF002205213620FEF7AAFD3620A3
:103F1000FEF79AFD13E00C49206888420FD100BFDC
:103F20000848001D006840F480200649091D08600B
:103F30000846006800F48020009000BF00BF38BD34
:103F40000010004040380240004801400146022075
:103F500081F83D000868006840F001000A681060C0
:103F6000012081F83D000020704701460868C068C4
:103F700040F001000A68D0600868006840F0010065
:103F80000A68106000207047704710B5044620682A
:103F90000069C0F34000D8B12068C068C0F3400099
:103FA000B0B16FF00200216808610120207720681D
:103FB000806900F0030018B12046FFF7E5FF05E037
:103FC000204600F023F9204600F04DFA002020772B
:103FD00020680069C0F38000D8B12068C068C0F3D1
:103FE0008000B0B16FF004002168086102202077E2
:103FF0002068806900F4407018B12046FFF7C4FFC4
:1040000005E0204600F002F9204600F02CFA0020DE
:10401000207720680069C0F3C000D8B12068C0686C
:10402000C0F3C000B0B16FF008002168086104203F
:1040300020772068C06900F0030018B12046FFF720
:10404000A3FF05E0204600F0E1F8204600F00BFA5F
:104050000020207720680069C0F30010D8B12068E4
:10406000C068C0F30010B0B16FF0100021680861A3
:10407000082020772068C06900F4407018B12046FD
:10408000FFF782FF05E0204600F0C0F8204600F070
:10409000EAF9002020772068006900F0010058B19B
:1040A0002068C06800F0010030B16FF001002168A5
:1040B0000861204600F0FEF920680069C0F3C010D6
:1040C00058B12068C068C0F3C01030B16FF08000F4
:1040D000216808612046FFF7AEFE20680069C0F342
:1040E000002058B12068C068C0F3C01030B16FF034
:1040F0008000216808612046FFF79DFE2068006966
:10410000C0F3801058B12068C068C0F3801030B18F
:104110006FF0400021680861204600F0FFF9206838
:104120000069C0F3401058B12068C068C0F3401067
:1041300030B16FF02000216808612046FFF77CFE57
:1041400010BD000010B586B00446094920688842B9
:104150000CD1802001900220029000200390049056
:104160000320059001A90348FDF7ECFE06B010BD41
:10417000004801400014024070B504460E46154642
:1041800000BF94F83C00012801D1022070BD01203D
:1041900084F83C0000BF022084F83D000C2D1AD0AA
:1041A00005DC4DB1042D0CD0082D23D10EE0102DCF
:1041B00016D0142D1ED118E03146206802F07AF88E
:1041C00019E03146206802F0AFF814E0314620686B
:1041D00002F0E8F80FE03146206802F021F90AE029
:1041E0003146206802F04EF905E03146206802F0C1
:1041F00075F900E000BF00BF012084F83D0000BF5A
:10420000002084F83C0000BF00BFBFE7704710B536
:1042100004460CB9012010BD94F83D0028B90020D7
:1042200084F83C00204600F00DF8022084F83D00A0
:10423000211D206801F0B8FF012084F83D00002016
:10424000E9E7000038B504462068B0F1804F16D188
:1042500000BF1848006840F0010016490860084691
:10426000006800F00100009000BF00BF002205219F
:104270001C20FEF7F6FB1C20FEF7E6FB19E00E49BA
:104280002068884215D100BF0A48006840F0080045
:10429000084908600846006800F00800009000BF68
:1042A00000BF002205213220FEF7DBFB3220FEF7A3
:1042B000CBFB38BD40380240000C004070B50446CE
:1042C0000D46164600BF94F83C00012801D102209B
:1042D00070BD012084F83C0000BF022084F83D003E
:1042E0000C2E51D005DC4EB1042E1ED0082E7AD1F2
:1042F00033E0102E60D0142EF9D175E029462068E5
:1043000001F0D8FF2068806940F0080021688861CA
:104310002068806920F00400216888612068806935
:10432000296908432168886177E02946206801F0FF
:10433000FBFF2068806940F4006021688861206884
:10434000806920F48060216888612068806929691B
:1043500040EA0120216888615FE02946206802F078
:1043600021F82068C06940F008002168C861206811
:10437000C06920F004002168C8612068C06929690B
:1043800008432168C86148E02946206802F048F8DF
:104390002068C06940F400602168C8612068C06975
:1043A00020F480602168C8612068C069296940EAFA
:1043B00001202168C86130E02946206802F062F8D7
:1043C0002068406D40F00800216848652068406D15
:1043D00020F00400216848652068406D2969084381
:1043E0002168486519E017E02946206802F076F850
:1043F0002068406D40F40060216848652068406D89
:1044000020F48060216848652068406D296940EA91
:1044100001202168486500E000BF00BF012084F84A
:104420003D0000BF002084F83C0000BF00BF4FE704
:1044300010B504460CB9012010BD94F83D0028B910
:10444000002084F83C00204600F00CF8022084F89C
:104450003D00211D206801F0A7FE012084F83D00E9
:104460000020E9E77047704730B504460D46012249
:104470002946206801F010FF0C492068884203D0CB
:104480000B492068884201D1012000E0002028B1BA
:104490002068406C40F4004021684864206800684F
:1044A00040F0010021680860002030BD000001409C
:1044B0000004014038B504460020009013492068EC
:1044C00088420ED169461248006807F0FBF900984F
:1044D00038B14FF080500F490860BFF34F8FBFF3E2
:1044E0006F8F2068B0F1804F0ED169460A4800688E
:1044F00007F0E8F9009838B14FF08050054908609E
:10450000BFF34F8FBFF36F8F38BD0000000C00402A
:104510007400002004ED00E07C000020704770472C
:104520002DE9F04104462068C569206806682068C6
:10453000876805F00F08B8F1000F0AD105F02000D8
:1045400038B106F0200020B1204602F017F9BDE88E
:10455000F081B8F1000F7BD007F0010018B906F424
:104560009070002874D005F0010048B106F4807006
:1045700030B1012021680862E06E40F00100E06681
:1045800005F0020048B107F0010030B102202168B7
:104590000862E06E40F00400E06605F0040048B1F7
:1045A00007F0010030B1042021680862E06E40F09D
:1045B0000200E06605F0080060B106F0200010B9C6
:1045C00007F0010030B1082021680862E06E40F079
:1045D0000800E066E06E58B305F0200028B106F050
:1045E000200010B1204602F0C9F8E06E00F008008B
:1045F00020B92068806800F0400018B3204602F01F
:1046000093F82068806800F04000B8B120688068A6
:1046100020F0400021688860606E50B11748616EDC
:104620000865606EFDF76EFA10B1606E016D884727
:104630000DE02046FFF773FF09E009E02046FFF791
:104640006EFF04E02046FFF76AFF0020E0667EE789
:1046500005F0800030B106F0800018B1204602F06D
:1046600097FA74E705F0400030B106F0400018B149
:10467000204602F069F86AE700BF68E77D66000837
:1046800010B504460CB9012010BDA06900B100E0CE
:1046900000BF94F8690028B9002084F8680020461B
:1046A00000F02AF8242084F869002068006820F0CF
:1046B000010021680860204602F0A4F8012800D11A
:1046C000E2E7606A10B1204601F03CFF20684068D4
:1046D00020F49040216848602068806820F02A001B
:1046E000216888602068006840F001002168086047
:1046F000204601F09CFFC7E710B586B004464C4940
:104700002068884225D100BF4A48006840F48010E4
:10471000484908600846006800F48010009000BF17
:1047200000BF4FF4405001900220029000200390FF
:10473000032004900820059001A93F48FDF702FCE2
:10474000002205213520FEF78CF93520FEF77CF993
:104750006BE03A49206888421DD100BF35480068A7
:1047600040F48020334908600846006800F4802047
:10477000009000BF00BF4FF44070019002200290F3
:1047800000200390032004900720059001A92C48E5
:10479000FDF7D8FB49E02B492068884245D100BF8E
:1047A0002448001D006840F020002249091D0860CF
:1047B0000846006800F02000009000BF00BFC02045
:1047C0000190022002900020039003200490082012
:1047D000059001A91C48FDF7B5FB1C481C49086061
:1047E0004FF0206048604021194881600021C1607D
:1047F0004FF480610161002141618161C161016209
:104800004162FDF7B3FA18B1D62112A002F036FAD0
:1048100000BF0F482066846300BF002205214720A7
:10482000FEF71FF94720FEF70FF906B010BD000094
:104830000050004040380240000402400048004060
:10484000000C02400014014000080240A064024035
:104850007C0A00202E2E2F5372632F7573617274A1
:104860002E6300002DE9F84F04460D461646994682
:104870004FF0000A94F86A0020287AD105B116B9E1
:104880000120BDE8F88F00BF94F86800012801D12D
:104890000220F6E7012084F8680000BF00205834A9
:1048A00060612220A074FDF75FFC8246268066804E
:1048B000583C00BFA068B0F5805F0AD1206920B9DC
:1048C00040F2FF10A4F85C001CE0FF20A4F85C009C
:1048D00018E0A06848B9206918B9FF20A4F85C0066
:1048E00010E07F20A4F85C000CE0A068B0F1805FCD
:1048F00008D1206918B97F20A4F85C0002E03F20AD
:10490000A4F85C0000BFB4F85C8024E0B4F85A005E
:10491000401EA4F85A005346002220212046CDF81C
:10492000009002F06AF908B10320AAE7A068B0F588
:10493000805F09D1206938B92F462068406A00EAB3
:1049400008003880AD1C06E02068406A08F0FF01CE
:10495000084005F8010BB4F85A000028D6D12020F1
:1049600084F86A0000BF002084F8680000BF88E770
:10497000FFE7022085E710B5034693F86A00202878
:1049800055D101B10AB9012010BD00BF93F86800EC
:10499000012801D10220F7E7012083F8680000BF59
:1049A0005965A3F85820A3F85A2000BF9868B0F5BD
:1049B000805F0AD1186920B940F2FF10A3F85C00AB
:1049C0001CE0FF20A3F85C0018E0986848B918695B
:1049D00018B9FF20A3F85C0010E07F20A3F85C006A
:1049E0000CE09868B0F1805F08D1186918B97F2091
:1049F000A3F85C0002E03F20A3F85C0000BF0020A9
:104A0000D866222083F86A0000BF002083F868007F
:104A100000BF1868806840F001001C68A06018683A
:104A2000006840F490701C6820600020ACE7022011
:104A3000AAE7000010B5044603492068884201D166
:104A400001F08EFA10BD0000001401402DE9F8437A
:104A500004460D4616461F464FF0000994F86900BB
:104A6000202854D105B116B90120BDE8F88300BF54
:104A700094F86800012801D10220F6E7012084F8AB
:104A8000680000BF00205034E06121206076FDF70F
:104A90006BFB814626806680503C21E0B4F85200D2
:104AA000401EA4F852004B46002280212046009769
:104AB00002F0A3F808B10320D7E7A068B0F5805F43
:104AC0000AD1206940B9A846B8F80000C0F3080030
:104AD00021688862AD1C03E015F8010B216888622B
:104AE000B4F852000028D9D14B460022402120467C
:104AF000009702F082F808B10320B6E7202084F87E
:104B0000690000BF002084F8680000BFADE7022004
:104B1000ABE70000F7B50446154694F86900202875
:104B20003FD1019800B10DB90120FEBD00BF94F83E
:104B30006800012801D10220F7E7012084F868000D
:104B400000BF0198E064A4F85050A4F8525000202F
:104B5000E066212084F869001348216EC863134879
:104B6000216E08641248216EC8640020216E086519
:104B700001AE236803F1280231682B46206EFDF751
:104B80006BF940202168086200BF002084F86800AB
:104B900000BF2068806840F08000216888600020A5
:104BA000C3E70220C1E70000E36600081B670008B6
:104BB000956600087047704708B5002013490860E3
:104BC000134908601349086013490860486005F0FC
:104BD0007BFC20201149086004201149086011481D
:104BE000114908601148124908600C480068114BCF
:104BF000114A1D2100901148FBF79AFD1048FCF75F
:104C0000F9FE1048FFF7A2F908BD000020000020BF
:104C10001000002014000020180000202C000020AC
:104C2000300000203801002024000020380300203C
:104C30002800002038050020C4BE000828060020F7
:104C4000CC060020AC08002000BFFEE710B50248EB
:104C5000FDF7FCFA10BD00001407002070B50546F2
:104C6000AC6B2068406840F4004021684860002038
:104C7000A16B0865E16B086594F84100602806D1D6
:104C8000202084F841002046FDF7DEFA02E02046AD
:104C9000FDF7EAFA70BD70B50546AC6B2068406858
:104CA00040F40040216848601021204600F02CF9B3
:104CB00070BD70B50546AC6B2068006820F40040FC
:104CC00021680860608D20B91221204600F058F854
:104CD00017E0218D606A08446062608DFF2802D968
:104CE000FF20208501E0608D2085238D266806F158
:104CF0002401626AE06BFDF7AFF81221204600F054
:104D00003FF870BD10B503460A46002102F00100CD
:104D100048B141F0420193F8410000F028002828F2
:104D200001D041F0B00102F00200022809D141F0A7
:104D3000440193F8410000F02800282801D041F0F8
:104D4000B00102F00400042801D141F0B80102F0E2
:104D50001100112801D141F0900102F01200122837
:104D600001D141F0200102F01200122801D141F0DE
:104D700040011868006888431C682060002010BD4E
:104D800010B5034600221F4C586BA04203D01E4CA6
:104D9000586BA04218D101F00400042801D142F060
:104DA000B80201F01100112801D142F0900201F087
:104DB0001200122801D142F0200201F01200122844
:104DC00019D142F0400216E001F00400042801D19C
:104DD00042F0B80201F0010008B142F0F20201F025
:104DE0000200022801D142F0F40201F01200122860
:104DF00001D142F020021868006810431C6820604E
:104E0000002010BD955300082155000801688969EC
:104E1000C1F3400111B10021026891620168896902
:104E200001F0010129B90168896941F001010268B5
:104E3000916170472DE9F047044689460027002517
:104E40000026A84694F8410000F02800282850D1F8
:104E500020688069C0F300472068806900F47E0004
:104E6000050C20688068C0F309062068C06800F05F
:104E7000FE08E06802282DD105F00600062101EAAF
:104E8000E611884216D13546A06C401CA064A06C87
:104E9000022836D10020A06408202168C86100BF24
:104EA000002084F8400000BF2A4639462046FDF71E
:104EB000CCF926E0454604212046FFF723FF00BF3A
:104EC000002084F8400000BF2A4639462046FDF7FE
:104ED000BCF916E004212046FFF714FF00BF0020B4
:104EE00084F8400000BF2A4639462046FDF7ADF958
:104EF00007E008202168C86100BF002084F8400056
:104F000000BFBDE8F087000070B504460D460020E4
:104F100084F842003F48E06200206085606C2843CE
:104F2000606494F84100282807D094F841002928AB
:104F300003D094F841002A280BD103212046FFF723
:104F4000E1FE282084F8410000202063324860639D
:104F50000DE007212046FFF7D5FE94F841006028B8
:104F600002D0202084F84100002020636063206884
:104F7000006800F48040B0F5804F15D120680068CB
:104F800020F48040216808602448A16B086500BFB8
:104F9000002084F8400000BFA06BFCF7B3FDF8B11F
:104FA000A06B016D884734E02068006800F4004081
:104FB000B0F5004F15D12068006820F4004021684A
:104FC00008601648E16B086500BF002084F84000C7
:104FD00000BFE06BFCF796FD10B1E06B016D8847F8
:104FE00017E094F8410060280BD1202084F841009C
:104FF00000BF002084F8400000BF2046FDF724F9E0
:1050000007E000BF002084F8400000BF2046FDF705
:105010002BF970BD0000FFFFB15500085D4C000882
:1050200070B504460D461848E06200202063202039
:1050300084F84100002084F84200606305F0040019
:1050400090B12068406AC1B2626A501C60621170FF
:10505000208D48B1208D401E2085608D401E6085CA
:10506000606C40F00400606407212046FFF74AFEB0
:1050700010202168C86100BF002084F8400000BFF4
:105080002046FDF755F970BD0000FFFF70B50446DE
:105090000D4620202168C8612068406833490840D7
:1050A000216848600020206360633148E06205F0B9
:1050B000100030B110202168C861606C40F004001D
:1050C00060642046FFF7A2FE03212046FFF71AFE88
:1050D000606C18B994F84100602804D1616C2046D6
:1050E000FFF712FF40E094F8410021281CD1202056
:1050F00084F8410094F8420040280AD1002084F846
:10510000420000BF84F8400000BF2046FDF712FABD
:105110002AE0002084F8420000BF84F8400000BF6D
:105120002046FDF729F91FE094F8410022281BD101
:10513000202084F8410094F8420040280AD1002041
:1051400084F8420000BF84F8400000BF2046FDF70D
:10515000CFF909E0002084F8420000BF84F8400045
:1051600000BF2046FDF7E6F870BD000000E800FE35
:105170000000FFFF70B504460D4620202168C8617D
:1051800008202168C86107212046FFF7BBFD206881
:10519000406840F4004021684860206840683F490A
:1051A0000840216848602046FFF730FE206800680C
:1051B00000F48040B0F5804F06D02068006800F40D
:1051C0000040B0F5004F0BD194F84100212803D1E5
:1051D000A06B0068406802E0E06B00684068608592
:1051E000608D18B1606C40F00400606405F004004C
:1051F00090B12068406AC1B2626A501C606211704E
:10520000208D48B1208D401E2085608D401E608518
:10521000606C40F0040060640020206384F8420069
:105220006063606C60B1616C2046FFF76DFE94F8BE
:105230004100282831D129462046FFF7F1FE2CE015
:10524000E06A10F5803F0DD01548E062202084F818
:10525000410000BF002084F8400000BF2046FDF759
:1052600067F81AE094F8410022280BD1202084F836
:10527000410000BF002084F8400000BF2046FDF739
:1052800059FB0AE0202084F8410000BF002084F888
:10529000400000BF2046FDF74EFB70BD00E800FE59
:1052A0000000FFFF10B50446002084F8420094F887
:1052B0004100292811D1282084F8410021202063B1
:1052C00001212046FFF71EFD00BF002084F84000AA
:1052D00000BF2046FDF72FFB14E094F841002A2878
:1052E00010D1282084F8410022202063022120468A
:1052F000FFF708FD00BF002084F8400000BF2046F3
:10530000FDF718FB10BD000070B504460D461646AB
:1053100020688069C0F30010002837D013E0681CB3
:1053200088B125B1FCF720FF801BA8420BD92020B3
:1053300084F84100002084F8420000BF84F8400057
:1053400000BF032070BD20688069C0F340100028B2
:10535000E5D010202168C86120202168C86120465E
:10536000FFF754FD206840680949084021684860FB
:1053700004206064202084F84100002084F842006A
:1053800000BF84F8400000BF0120DBE70020D9E720
:1053900000E800FE2DE9F84304460D4616460027B6
:1053A000B84600BF94F84000012802D10220BDE8B1
:1053B000F883012084F8400000BF05F0100088B198
:1053C00006F0100070B110202168C861606C40F0D8
:1053D0000400606412212046FFF7D2FC2046FFF74C
:1053E00015FD4EE005F08000002840D006F040009A
:1053F00078B32068006820F0400021680860608D64
:1054000040B320684068C0F30907608DFF2804D9C5
:10541000FF2020854FF0807803E0608D20854FF0DD
:1054200000780020009094F8282043463946204612
:1054300000F05EF9608D218D401A608594F841007E
:10544000222808D12068006840F4004021680860E4
:1054500017E00CE006E02068006840F48040216816
:1054600008600EE040212046FFF74EFD09E005F000
:10547000200030B106F0200018B129462046FFF781
:1054800005FE00BF002084F8400000BF00BF8EE78B
:105490002DE9F8430446894615461E46DDE908789D
:1054A0001E48F2B2002349460090204600F020F941
:1054B00042463946204600F08BF938B1606C04282A
:1054C00002D10120BDE8F8830320FBE7012E03D1C0
:1054D000E8B22168886213E0C5F30720216888627A
:1054E00042463946204600F073F930B1606C04281A
:1054F00001D10120E6E70320E4E7E8B221688862F1
:105500003B46002240212046CDF8008000F00AF9F9
:1055100008B10320D6E70020D4E700000020008077
:1055200070B504460D46164600BF94F840000128A9
:1055300001D1022070BD012084F8400000BF05F0B9
:105540001000D0B106F01000B8B194F84100212845
:1055500003D1A06B0068406802E0E06B006840681F
:1055600018B910202168C8611BE010202168C861AB
:10557000606C40F00400606413E005F0080030B196
:1055800006F0080018B108202168C86109E005F09C
:10559000200030B106F0200018B129462046FFF760
:1055A000E9FD00BF002084F8400000BF00BFC1E754
:1055B00070B504460D46164600BF94F84000012819
:1055C00001D1022070BD012084F8400000BF05F029
:1055D000100098B306F0100080B3608D30BBE06A15
:1055E000B0F1007F03D0E06AB0F1007F08D194F8F9
:1055F0004100282804D129462046FFF711FD66E026
:10560000E06A10F5803F0DD094F84100292809D1B7
:1056100010202168C8612046FFF7F8FB2046FFF7FD
:1056200041FE54E010202168C86150E0102021683C
:10563000C861606C40F00400606448E0FFE705F07A
:105640000400D8B106F00400C0B1608D60B12068DC
:10565000406AC1B2626A501C60621170208D401EA7
:105660002085608D401E6085608D30BBE06A10F53E
:10567000803F2CD02046FFF715FE28E005F00800FB
:1056800038B106F0080020B129462046FFF7D2FBCA
:105690001DE005F0020080B106F0020068B1608DE7
:1056A00060B1616A481C6062087821688862608D18
:1056B000401E6085208D401E208508E0E06AB0F124
:1056C000807F01D0E06A10B92046FFF7EBFD05F0BE
:1056D000200030B106F0200018B129462046FFF71F
:1056E00049FD00BF002084F8400000BF00BF69E70B
:1056F000F0B5059C05686D684FF4806606EA54565F
:1057000066F0FC2646F4C046B543C1F309064FF4E3
:105710007F0707EA02473E431E4326433543066898
:105720007560F0BD2DE9F04104460E4617461D4652
:10573000DDF8188015E0681C98B12DB1FCF714FD58
:10574000A0EB0800A8420CD9202084F841000020DA
:1057500084F8420000BF84F8400000BF0320BDE889
:10576000F081206880693040B04201D1012000E022
:105770000020B842DFD00020F1E770B504460D46A6
:1057800016461DE0324629462046FFF7BDFD08B10A
:10579000012070BD25B1FCF7E7FC801BA8420FD9A2
:1057A000606C40F020006064202084F841000020FC
:1057B00084F8420000BF84F8400000BF0320E8E7FF
:1057C00020688069C0F340100028DBD00020E0E7AB
:1057D00070B504460D4616461FE03246294620465F
:1057E000FFF792FD08B1012070BD681CA8B125B17A
:1057F000FCF7BAFC801BA8420FD9606C40F0200077
:105800006064202084F84100002084F8420000BF3A
:1058100084F8400000BF0320E6E720688069C0F3F9
:1058200040000028D9D00020DEE700001FB519484D
:10583000194908604FF480304860010216488160C1
:10584000012101610021816101624FF00051C162BB
:105850004FF0506181620021C1600121C1610021CE
:10586000016301214161FCF75FF818B152210BA0DF
:1058700001F004FA0D200090012001900020029018
:1058800069460548FBF798FE18B15C2103A001F0BA
:10589000F5F91FBD00200140CC0600202E2E2F530D
:1058A00072632F6164632E630000000008B500BFBF
:1058B0001548006840F40010134908600846006865
:1058C00000F40010009000BF00BF00BF0846006851
:1058D00040F4800008600846006800F480000090F2
:1058E00000BF00BF002205210D20FDF7BAF80D20F2
:1058F000FDF7AAF8002205214520FDF7B2F8452062
:10590000FDF7A2F808BD00003038024000B585B0B0
:10591000142206496846FBF71CF80021684604F08B
:1059200034F80349086005B000BD000038BF000826
:105930005C00002000B587B000BF3D48006840F023
:1059400004003B4908600846006800F0040001902C
:1059500000BF00BF00BF0846006840F0200008609C
:105960000846006800F02000019000BF00BF00BFA3
:105970000846006840F0800008600846006800F0B3
:105980008000019000BF00BF00BF0846006840F0E3
:10599000020008600846006800F00200019000BFA5
:1059A00000BF00BF0846006840F0080008600846D5
:1059B000006800F00800019000BF00BF00224FF413
:1059C00081411C48FCF7CAFB4FF4005002901A4872
:1059D00003900020049002A91848FCF7B3FA4FF492
:1059E000814002900120039000200490059002A9BC
:1059F0001048FCF7A7FA012002900F4803900020FE
:105A0000049002A90E48FCF79DFA00220521062009
:105A1000FDF727F80620FDF717F8002205212820BA
:105A2000FDF71FF82820FDF70FF807B000BD0000B4
:105A3000303802400004024000001110000802400B
:105A4000000C024010B5154815490860154848601B
:105A50000021134881600121C16000210161416181
:105A60008161C1610162FCF701FC18B14F210EA0F8
:105A700001F004F900210A48FCF77CFB18B156211B
:105A800009A001F0FBF800210548FCF7A8FB18B1BC
:105A90005D2105A001F0F2F810BD000000580040A3
:105AA00014070020684740202E2E2F5372632F6961
:105AB00032632E630000000010B5154815490860D8
:105AC00015484860B421134881600121C16000215C
:105AD000016141618161C1610162FCF7C7FB18B1DD
