:020000040800F2
:1000000078E60120C902000871440008D53D0008C7
:100010006D4400087D0C00080D520008000000002F
:100020000000000000000000000000000D020008B9
:10003000AB0D000800000000610200089B450008AD
:10004000E3020008E3020008E3020008E3020008FC
:10005000E3020008E3020008AD0D0008E302000817
:10006000E3020008E3020008E3020008E3020008DC
:10007000E3020008810C0008E3020008E302000824
:10008000E3020008E3020008010B0008E302000895
:10009000E3020008E3020008E3020008E3020008AC
:1000A000E3020008E3020008E3020008E30200089C
:1000B00029470008E3020008E3020008E302000801
:1000C000E3020008D93D0008E3020008E30200084B
:1000D000E3020008E3020008E3020008E30200086C
:1000E000B70D0008E3020008E3020008E30200087D
:1000F000E3020008E3020008E3020008E30200084C
:10010000E3020008E302000839470008E3020008A0
:10011000E3020008C94A000849470008E302000852
:10012000E3020008E3020008E3020008E30200081B
:10013000E3020008E3020008E3020008E30200080B
:10014000E3020008E3020008E3020008E3020008FB
:10015000E3020008910C0008E3020008FD510008CA
:10016000E3020008E3020008E3020008E3020008DB
:10017000E3020008E3020008E302000800000000B8
:10018000E3020008E3020008E3020008E3020008BB
:10019000E3020008E3020008E3020008E3020008AB
:1001A000E3020008E3020008E3020008E30200089B
:1001B000E3020008E3020008E3020008E30200088B
:1001C000E3020008E302000800000000E302000868
:1001D000E3020008E3020008E3020008E30200086B
:1001E000E3020008E3020008E3020008E30200085B
:1001F000E3020008E3020008DFF80CD000F0E2FBA5
:1002000000480047C955000878E601202B4B1968C3
:100210000868B0E8F04F80F30988BFF36F8F4FF0A4
:10022000000080F311887047000000000648006855
:10023000006880F3088862B661B6BFF34F8FBFF3E2
:100240006F8F00DF00BF00BF08ED00E0DFF80C009B
:10025000016841F470010160704700BF88ED00E063
:10026000EFF30980BFF36F8F144B1A681EF0100F65
:1002700008BF20ED108A20E9F04F106008B44FF05D
:10028000500072B680F31188BFF34F8FBFF36F8FAA
:1002900062B606F035F94FF0000080F3118808BC13
:1002A00019680868B0E8F04F1EF0100F08BFB0ECF6
:1002B000108A80F30988BFF36F8F7047E002002037
:1002C000EFF3058070470000064880470648004766
:1002D000FEE7FEE7FEE7FEE7FEE7FEE7FEE7FEE7F6
:1002E000FEE7FEE7C5460008F90100082DE9F04FDA
:1002F0006FF0030C2DED028BDFEDF88AB0F8008073
:100300005FEAD30BD0E901490CEB880C04EB0C0736
:1003100018BF4FEAD80E00F0458100BF91ED000AEA
:1003200001F1040C87ED000A91ED010A0CF10405BE
:1003300087ED010A9CED010AB0EE685A87ED020ACA
:1003400095ED010A291D87ED030A95ED020A07F1D3
:100350001C0687ED040A95ED030AF0EE686A87ED46
:10036000050A95ED040A5FEA0E0587ED060A9CED85
:10037000060AB0EE457A87ED070AD4ED002A94ED1F
:10038000012AD4ED021A94ED031AD4ED040A94ED77
:10039000050A94ED063A06F10407CC46F0EE454A0C
:1003A000B0EE458AF0EE455AF0EE457AB0EE456A79
:1003B00004F11C0601F114017ED000BF9CED004A3F
:1003C000D6ED003A0CF1040A42EE846A02EE045AB9
:1003D00001EE847A41EE044A00EE848A40EE045A2B
:1003E00043EE047A03EE846A9AED004AD6ED012AC0
:1003F00006F1040C42EE046A01EE845A01EE047A1E
:1004000040EE844A00EE048A43EE045A43EE847AB6
:1004100002EE846A9AED014A0CF1040C0AF104061A
:100420009CED002A41EE846A01EE045A00EE847AC3
:1004300040EE044A03EE048A43EE845A42EE847A84
:1004400002EE046A96ED014ADCED011A6D1E41EEE2
:10045000046A00EE845A00EE047A43EE044A03EE86
:10046000848A42EE845A42EE047A01EE846A96ED62
:10047000024A9CED021A40EE846A00EE045A03EE32
:10048000047A43EE844A02EE848A42EE045A41EE34
:10049000847A01EE046A96ED034ADCED030A40EE2D
:1004A000046A03EE045A03EE847A42EE844A02EEB2
:1004B000048A41EE845A00E035E041EE047A00EE11
:1004C000846A96ED044A9CED040A06F1140A43EE90
:1004D000046A03EE845A02EE847A42EE044A01EE84
:1004E000848A41EE045A40EE847A00EE046A9AED62
:1004F000004A9CED053A0CF1140643EE846A02EEC4
:10050000845A02EE047A41EE844A01EE048A40EEF7
:10051000845A40EE047A03EE046A0AF1040C06F1F0
:1005200004067FF44BAF18F0070A24D0FCEC013A24
:10053000BAF1010AB6EC014A42EEA36A02EE235A6E
:10054000F0EE422A01EEA37AB0EE612A41EE234A90
:1005500000EEA38A40EE235A43EE237A04EE236A88
:10056000F0EE411AB0EE601AF0EE400AB0EE430A27
:10057000B0EE443ADAD1C2ED006A82ED015A82ED62
:10058000027AC2ED034A82ED048AC2ED055AC2ED39
:10059000067A1C322034BBF1010BA2EC016A7FF415
:1005A000BDAE00BF13F0070641D000BFB1EC010A99
:1005B000B8F1010309F1040C04F10405A7EC010AE8
:1005C000D4ED000A99ED001AB0EE680A00EE810A37
:1005D00028D0B3F1004F7DD2002B23DD13F0010FA3
:1005E000A5F10405ACF1040C08D0D5ED010A9CED91
:1005F000011A2D1D0CF1040C00EE810A5B1011D0C4
:1006000095ED011ADCED011AD5ED020A5B1E01EE33
:10061000210A9CED021A05F108050CF1080C00EE08
:10062000810AEDD1241D761EA2EC010ABED1A8F1EB
:1006300001054068AB0822D0B3F1004F59D2002B1E
:100640001DDD224601469C4692ED000ABCF1010CDC
:1006500081ED000A92ED010A81ED010A92ED020A94
:1006600081ED020A92ED030A02F1100281ED030A04
:1006700001F11001E8D104EB031400EB031015F0B5
:10068000030104BFBDEC028BBDE8F08FB1F1004F58
:1006900047D200291BDD11F0010FA4F10402A0F1E3
:1006A000040005D092ED010A80ED010A001D121D23
:1006B00049080CD092ED010A02F1080280ED010A0E
:1006C000083092ED000A491E80ED000AF2D1BDEC1F
:1006D000028B00E004E0BDE8F08F000000000000A5
:1006E000F5EC010A5B1EBCEC011A00EE810AF7D1A1
:1006F00098E794ED000A80ED000A94ED010A80ED80
:10070000010A94ED020A80ED020A083094ED030A12
:100710005B1E80ED010A04F1100400F10800E8D12D
:10072000ADE7B4EC010A491EA0EC010AF9D1CEE70D
:1007300070B504461D460498A260084421808000DC
:10074000011F184600F0B3F8656070BDF0B44F1E8D
:10075000002490ED000ABE08254600F1040C2ED0BE
:10076000DCED000A9CED011A0CF10800B4EEE00A81
:10077000F1EE10FAC4BF651CB0EE600AB4EEC10A17
:10078000F1EE10FAC4BFA51CB0EE410AD0ED000A8C
:1007900090ED011A00F1080CB4EEE00AF1EE10FA47
:1007A000C4BFE51CB0EE600AB4EEC10AF1EE10FA67
:1007B000C4BF251DB0EE410A241D761ED0D117F00E
:1007C000030018D0B0F1004F044619D20028C8BF6A
:1007D000002610DDDCED000AF4EEC00AF1EE10FA9E
:1007E00003D28D192D1AB0EE600A641E06F10106BF
:1007F0000CF1040CEED182ED000A1D60F0BC7047D4
:10080000FCEC010AB4EEE00AF1EE10FAC4BF0D1AD6
:10081000B0EE600A401EF3D1EDE72DE9F05F05462A
:10082000002092469B4688460646814640241BE0AF
:10083000284641464746224600F07CF853465A4631
:10084000C01A914110D311461846224600F063F8B1
:100850002D1A67EB01084F4622460120002100F0C7
:100860005AF817EB00094E41201EA4F10104DFDC09
:10087000484631462A464346BDE8F09F40EA010318
:100880009B0703D009E008C9121F08C0042AFAD246
:1008900003E011F8013B00F8013B521EF9D270470A
:1008A000D2B201E000F8012B491EFBD270470022B2
:1008B000F6E710B513460A4604461946FFF7F0FF5F
:1008C000204610BD421E12F8013F002BFBD111F84B
:1008D000013B02F8013B002BF9D17047421C10F894
:1008E000011B0029FBD1801A7047034611F8012B28
:1008F00000F8012B002AF9D11846704770B506465A
:1009000004F088FC046805460A220021304600F005
:1009100021F82C6070BD202A04DB203A00FA02F195
:10092000002070479140C2F1200320FA03F31943DD
:1009300090407047202A04DB203A21FA02F000217F
:10094000704721FA02F3D040C2F1200291400843DF
:10095000194670472DE9F04791460F4680460446F8
:10096000002614F8015B2DB100F03EF80068405DF0
:10097000C007F6D12B2D02D02D2D18D0641E4A466B
:100980003946204600F034F827B13968A14201D138
:10099000C7F8008071054FF002040BD540420028D3
:1009A00003DD04F037FC0460A007BDE8F08746F4DF
:1009B0008066E4E70028F8DA04F02CFC04606FF0AD
:1009C0000040F2E7064C074D06E0E06840F0010306
:1009D00094E8070098471034AC42F6D3FFF710FCB8
:1009E000DC730008FC73000800487047CC730008F3
:1009F0002DE9F05F82460078002715468B460AF104
:100A00000104B946302801D09DB113E014F8010B60
:100A10000127782803D0582801D045B10AE00DB14C
:100A2000102D07D10027102514F8010B02E008252E
:100A300000E00A250026B0460EE005FB080005FB95
:100A400006F1012701EB10461FFA80F8B6F5803F4A
:100A500000D3B94614F8010B294600F018F8002815
:100A6000EBDABBF1000F05D00FB1641E00E0544675
:100A7000CBF80040B9F1000F06D004F0CBFB022107
:100A80000160C81EBDE8F09F48EA0640FAE73A2830
:100A900000D2303820F02002412A01D3A2F13700E1
:100AA000884201D34FF0FF30704770B58C1810F8B2
:100AB000015B15F0070301D110F8013B2A1106D1A3
:100AC00010F8012B03E010F8016B01F8016B5B1EBD
:100AD000F9D12B0705D40023521E0DD401F8013B98
:100AE000FAE710F8013BCB1A921C03E013F8015B04
:100AF00001F8015B521EF9D5A142D8D3002070BD88
:100B000010B5024800F083FA10BD0000B4080020C0
:100B10005749096821F44031564AC2F80413114676
:100B2000D1F8041342681143514A116001684968C1
:100B300021F480710268516001684A68016942EAE3
:100B40000121026851600168496821F04071026822
:100B50005160016849688268114302685160016808
:100B6000896821F400610268916001688968C2683F
:100B7000114302689160404A816A914218D001682D
:100B8000896821F070610268916001688968826AF1
:100B90001143026891600168896821F04051026840
:100BA000916001688968C26A1143026891600BE034
:100BB0000168896821F07061026891600168896844
:100BC00021F04051026891600168896821F00201BA
:100BD0000268916001688A68816942EA410102689D
:100BE0009160016AA1B10168496841F4006102683D
:100BF00051600168496821F46041026851600168F0
:100C00004A68416A491E42EA41310268516005E082
:100C10000168496821F40061026851600168C96A8D
:100C200021F470010268D1620168CA6A818B491E91
:100C300042EA01510268D1620168896821F40071B9
:100C40000268916001688A68016B42EA412102688A
:100C500091600168896821F480610268916001688F
:100C60008A68416942EA8121026891607047000008
:100C700004230140002001400100000F00BFFEE7F7
:100C800010B5024800F080FB10BD00009409002060
:100C900010B5024800F078FB10BD0000640C002085
:100CA0000146087810381823B0FBF3F20848805C3E
:100CB000C865032A05D908686FF30900001D886517
:100CC00003E008686FF309008865886D70470000CD
:100CD00028730008014600208A6A8B69CBB932B1BB
:100CE000012A0DD0022A03D0032A10D10EE000BF42
:100CF000CB6A03F08073B3F1807F00D1012007E05D
:100D0000CB6AB3F1C07F00D1012001E000E000BF59
:100D100034E08B69B3F5005F1AD132B1012A07D0F4
:100D2000022A03D0032A11D10AE000BF01200EE0FD
:100D3000CB6A03F08073B3F1807F00D1012006E01D
:100D4000CB6AB3F1C07F00D1012000E000BF15E005
:100D500032B1012A05D0022A04D0032A0CD103E0C3
:100D600000BF00BF012008E0CB6A03F08073B3F13D
:100D7000807F00D1012000E000BF00BF704730B588
:100D80000468246824F4802405682C600468636087
:100D90008468402C04D10468A2600468E16003E028
:100DA0000468A1600468E26030BD704710B501209E
:100DB00000F0E8FC10BD10B54FF4005000F0E2FC6C
:100DC00010BD000070B504462046FFF787FD60B1F6
:100DD0002046FFF783FD85B264232A462146044856
:100DE00002F0FCFE08B9012070BD0020FCE7000005
:100DF000140B00207047000018B502460020009038
:100E000000BF92F83C00012801D1022018BD01204A
:100E100082F83C0000BF0868092822D91068C06821
:100E20000B780A3B03EB43040723A3409843136862
:100E3000D860594B0868984207D11068C0680B7A8F
:100E400040EA03601368D8601FE00B780A3B03EBAD
:100E50004303886898401368DB6818431368D860B8
:100E600013E0106800690B7803EB43040723A340E9
:100E70009843136818610B7803EB43038868984024
:100E800013681B691843136818614868072817D24C
:100E90001068406B0B795B1E03EB83041F23A34098
:100EA000984313685863088880B20B795B1E03EB84
:100EB0008303984013685B6B18431368586331E0F1
:100EC00048680D2817D21068006B0B79DB1F03EB05
:100ED00083041F23A340984313681863088880B2D3
:100EE0000B79DB1F03EB8303984013681B6B1843DC
:100EF0001368186316E01068C06A0B790D3B03EBAA
:100F000083041F23A34098431368D862088880B2E3
:100F10000B790D3B03EB830398401368DB6A18439E
:100F20001368D8621D4B1068984208D108681228CF
:100F300005D11B48006840F48000C3F80403174B38
:100F40001068984220D1144B0868984202D0086873
:100F5000112819D11248006840F40000104B1860A5
:100F60000D4B086898420FD10E4800680E4BB0FB3D
:100F7000F3F000EB80004000009002E00098401E7B
:100F8000009000980028F9D100BF002082F83C00B2
:100F900000BF00BF3AE7000012000010002001402F
:100FA00004230140B802002040420F001CB5044653
:100FB0000020009011480068802802D100200F49CD
:100FC00008600E4801680068401C0C4A10600C481C
:100FD00050F82100019000236A4601A909480068E1
:100FE00005F0E4FD009838B14FF0805006490860E4
:100FF000BFF34F8FBFF36F8F1CBD000000020020B6
:10100000000000209802002004ED00E0704770B559
:1010100004460025002620680068C0F340052068CB
:101020004068C0F3401695B38EB3206C00F01000FA
:1010300018B9206C40F4007020642068806800F0CB
:101040004050E8B9A069D8B92068C06A00F47000BF
:1010500020B12068806800F4806088B9206840680A
:1010600020F0200021684860206C20F4807020640B
:10107000206C00F4805018B9206C40F0010020640E
:101080002046FFF793FF6FF0120021680860206888
:101090000068C0F3800520684068C0F3C016E5B35F
:1010A000DEB3206C00F0100018B9206C40F4005042
:1010B00020642068806800F4401038BB2068806B92
:1010C00000F4401020B12068806800F48060E8B926
:1010D0002068406800F48060C0B92068806800F033
:1010E000405098B9A06988B92068406820F0800015
:1010F00021684860206C20F480502064206C00F44B
:10110000807018B9206C40F0010020642046FFF781
:1011100071FE6FF00C00216808602068006800F024
:10112000010520684068C0F3801685B17EB1206853
:10113000006800F0010050B1206C40F48030206461
:10114000204600F053F86FF0010021680860206825
:101150000068C0F3401520684068C0F380667DB128
:1011600076B1606C40F0020060646FF0200021688E
:1011700008602046FFF74AFF6FF0200021680860F2
:1011800070BD000070B5044600250CB9012070BD8B
:101190001549A06A884200D000BF206C30B90020F9
:1011A000606484F83C00204600F022F8206C00F0D7
:1011B000100088B9206C20F4885040F002002064B0
:1011C0002046FFF7A5FC00206064206C20F00200A0
:1011D00040F00100206400E0012500BF002084F8F9
:1011E0003C0000BF2846D2E70100000F7047000016
:1011F00010B586B004461349206888421FD100BF4D
:101200001148006840F480700F4908600846006883
:1012100000F48070009000BF00BF08200190032000
:1012200002900020039001A9084800F0B9FA0022BA
:101230000521122000F0BDFD122000F0ADFD06B02A
:1012400010BD000000200140443802400008024068
:1012500008B501460020009000BF91F83C0001282D
:1012600001D1022008BD012081F83C0000BF0868C0
:10127000806800F00100A0B90868806840F00100B3
:101280000A68906031480068314AB0FBF2F000EB28
:101290004000009002E00098401E00900098002856
:1012A000F9D10868806800F0010000284BD0086C74
:1012B00040F20162904340F480700864086840681E
:1012C00000F4806028B1086C20F4005040F4805095
:1012D0000864086C00F4805020B1486C20F00600CF
:1012E000486401E00020486400BF002081F83C0011
:1012F00000BF6FF022000A68106008684068154A55
:1013000010430A6850601448006800F01F0058B984
:101310000868806800F04050A8B90868806840F00C
:1013200080400A6890600EE00C4A086890420AD13A
:101330000868806800F0405028B90868806840F06C
:1013400080400A68906000208CE70000B80200200E
:1013500040420F002000000404230140002001400F
:10136000014691F83500022803D08020486501200D
:101370007047052081F835000868006820F00100FA
:101380000A6810600020F3E7F8B5044600200090DA
:101390008C4800684FF41651B0FBF1F7A56D2E682C
:1013A00094F85C1008208840304098B120680068AC
:1013B00000F0040070B12068006820F0040021688B
:1013C000086094F85C1008208840A860606D40F0C8
:1013D0000100606594F85C1001208840304068B1DD
:1013E0002068406900F0800040B194F85C10012052
:1013F0008840A860606D40F00200606594F85C1061
:1014000004208840304068B12068006800F0020085
:1014100040B194F85C1004208840A860606D40F0F2
:101420000400606594F85C1010208840304078B368
:101430002068006800F0080050B394F85C10102099
:101440008840A8602068006800F4802080B120688F
:10145000006800F4002028B9206CC8B12046216C37
:10146000884715E0A06C98B12046A16C88470FE032
:101470002068006800F4807028B92068006820F0B7
:10148000080021680860206C10B12046216C884754
:1014900094F85C10202088403040002865D02068F7
:1014A000006800F0100000285FD094F85C10202045
:1014B0008840A86094F83500052828D12068006885
:1014C00020F01600216808602068406920F0800044
:1014D00021684861206C08B9A06C28B120680068B8
:1014E00020F008002168086094F85C103F208840D4
:1014F000A86000BF002084F8340000BF012084F8F9
:101500003500206D10B12046216D8847F8BD206858
:10151000006800F4802080B12068006800F400209A
:1015200028B9606C10B12046616C88471DE0E06B03
:10153000D8B12046E16B884717E02068006800F4C6
:10154000807068B92068006820F010002168086089
:1015500000BF002084F8340000BF012084F835006B
:10156000E06B10B12046E16B8847606D38B3606D69
:1015700000F00100F0B1052084F835002068006813
:1015800020F001002168086000BF0098401C009016
:10159000B84200D905E02068006800F0010000288A
:1015A000F3D100BF00BF002084F8340000BF012049
:1015B00084F83500E06C10B12046E16C884700BF2C
:1015C000A4E70000B80200202DE9F0410446002500
:1015D00000F0F8F9074614B90120BDE8F081606A0F
:1015E00000B100BF00BF002084F8340000BF02201B
:1015F00084F835002068006820F001002168086048
:101600000AE000F0DFF9C01B052805D9202060653D
:10161000032084F83500E0E72068006800F001004E
:101620000028EED12068056821480540D4E9010171
:101630000843E16808432169084361690843A169D7
:101640000843E1690843216A08430543606A0428A6
:1016500003D1D4E90B0108430543206805602068E5
:10166000456925F00705606A0543606A04280DD1C5
:10167000A06A0543E06A48B12046FFF72BFB28B17A
:1016800040206065012084F83500A6E720684561A8
:101690002046FFF705FB064694F85C103F20884083
:1016A000B06000206065012084F83500002094E7D8
:1016B0003F8010E02DE9F04704460D4616461F46D0
:1016C0004FF00008D4F8589000BF94F83400012877
:1016D00002D10220BDE8F087012084F8340000BF69
:1016E00094F8350001282BD1022084F83500002021
:1016F00060653B46324629462046FFF740FB94F89A
:101700005C103F208840C9F808002068006840F05D
:101710001600216808602068406940F08000216858
:101720004861206C28B12068006840F008002168FA
:1017300008602068006840F001002168086006E049
:1017400000BF002084F8340000BF4FF0020840467C
:10175000C0E7000038B5044600200090B4F5005FF3
:1017600004D169460548006805F0ACFA012C04D1A3
:1017700069460348006805F0A5FA38BD6C020020F0
:101780007402002010B5044604480068204020B1CF
:10179000024804602046FFF7DDFF10BD143C014005
:1017A000F8B502460B46002100250024002000BFAA
:1017B000E4E0012606FA01F51E6806EA0504AC42DB
:1017C00071D15E68022E02D05E68122E13D1CF084E
:1017D00002F1200656F827004E07F70E0F26BE40EE
:1017E000B0434F07FF0E1E69BE403043CF0802F1E1
:1017F000200646F8270010684F000326BE40B0437D
:101800001E7906F003064F00BE40304310605E684C
:10181000012E08D05E68022E05D05E68112E02D01F
:101820005E68122E13D190684F000326BE40B0436D
:101830004F00DE68BE4030439060506801268E4005
:10184000B0431E79C6F300168E4030435060D06816
:101850004F000326BE40B0434F009E68BE40304359
:10186000D0605E6806F08056B6F1805FA8D100BFF8
:10187000444E366846F48046424F3E603E463668E7
:1018800006F48046009600BF00BF3F4E8F0856F812
:1018900027008E07370F0F26BE40B0433B4EB242A3
:1018A00002D100262EE068E0394EB24201D1012675
:1018B00028E0384EB24201D1022623E0364EB24231
:1018C00001D103261EE0354EB24201D1042619E0B3
:1018D000334EB24201D1052614E0324EB24201D15C
:1018E00006260FE0304EB24201D107260AE02F4E05
:1018F000B24201D1082605E02D4EB24201D109269F
:1019000000E00A268F073F0FBE4030431E4E8F086F
:1019100046F82700274E3068A0435E6806F48036FC
:10192000B6F5803F00D12043224E3060361D30682E
:10193000A0435E6806F40036B6F5003F00D12043B0
:101940001C4E361D3060361D3068A0435E6806F4BC
:101950008016B6F5801F00D12043164E0836306041
:10196000361D3068A0435E6806F40016B6F5001F09
:1019700000D120430F4E0C363060491C1029FFF473
:1019800018AFF8BD4438024008380140000002405A
:101990000004024000080240000C02400010024017
:1019A0000014024000180240001C024000200240C7
:1019B00000240240003C01400AB1816101E00B04B7
:1019C000836170470148006870470000AC02002046
:1019D000024692F8410020282DD100BF92F8400025
:1019E000012801D102207047012082F8400000BF89
:1019F000242082F841001068006820F0010013687C
:101A000018601068006820F480501368186010682F
:101A100000680843136818601068006840F001000F
:101A200013681860202082F8410000BF002082F86F
:101A3000400000BFD7E70220D5E710B502460B46AD
:101A4000002192F8410020282AD100BF92F84000DE
:101A5000012801D1022010BD012082F8400000BF02
:101A6000242082F841001068006820F0010014680A
:101A700020601068016821F4706141EA0321106858
:101A800001601068006840F00100146820602020A8
:101A900082F8410000BF002082F8400000BFDAE772
:101AA0000220D8E770B5044620688569206806687A
:101AB000606B20B1324629462046636B984770BD63
:101AC00010B504460CB9012010BD94F8410028B9A6
:101AD000002084F84000204600F054F8242084F8C8
:101AE00041002068006820F00100216808606068FB
:101AF00020F07060216808612068806820F4004050
:101B000021688860E068012805D1A06840F40040A1
:101B10002168886004E0A06840F40440216888607F
:101B2000E068022802D1800221684860206840688D
:101B300013490843216848602068C06820F40040C9
:101B40002168C860D4E904010843A16940EA012082
:101B50002168C860D4E9070108432168086020684B
:101B6000006840F0010021680860002060642020C7
:101B700084F841000020206384F8420000BFA3E7FE
:101B80000080000210B586B00446354920688842BE
:101B900043D10320019012200290012003900320E2
:101BA00004900420059001A92E48FFF7F9FD00BF1D
:101BB0002D48006840F480002B4908600846006802
:101BC00000F48000009000BF00BF2848284908604A
:101BD0004FF060604860002125488160C1604FF48B
:101BE00080610161002141618161C16101624162E5
:101BF000FFF7EAFC18B1A9211EA003F009FB00BF02
:101C00001B48E063846300BF00220521212000F00F
:101C1000D0F8212000F0C0F820E01A49206888425E
:101C20001CD14FF4404001901220029001200390FB
:101C3000032004900420059001A90A48FFF7B0FD95
:101C400000BF0948006840F08070074908600846F6
:101C5000006800F08070009000BF00BF06B010BDAB
:101C600000580040001402404038024040600240EA
:101C7000940900202E2E2F5372632F6932632E6336
:101C80000000000000600040034800680349097834
:101C90000844014908607047AC020020B4020020EB
:101CA00010B5032000F0C4F80F2000F005F800F094
:101CB00029F8002010BD000070B504460E480078D9
:101CC0004FF47A71B1FBF0F00C490968B1FBF0F503
:101CD000284601F00EFA08B1012070BD102C07D281
:101CE00000222146501E00F064F80548046001E01F
:101CF0000120F2E70020F0E7B4020020B802002043
:101D0000B002002008B500BF2248006840F08050B3
:101D1000204908600846006800F08050009000BF2D
:101D200000BF00BF081D006840F48040091D086026
:101D30000846006800F48040009000BF00BF032008
:101D400000F076F8002211466FF00B0000F031F839
:101D5000002211466FF00A0000F02BF80022114615
:101D60006FF0090000F025F800221146501F00F026
:101D700020F800221146101F00F01BF800220F214E
:101D8000901E00F016F800220F21501E00F011F8EE
:101D900008BD00004038024000BF00F01F020121D2
:101DA00091404209920002F1E022C2F8001100BF06
:101DB00070472DE9F05F80460D461646002702F079
:101DC00059FB074639462A46334601F00700C0F161
:101DD000070ABAF1040F02D94FF0040A01E0C0F17A
:101DE000070AD14600F1040ABAF1070F02D24FF0F8
:101DF000000A01E0A0F1030AD4464FF0010A0AFAF2
:101E000009FAAAF1010A0AEA020A0AFA0CFA4FF0E0
:101E1000010B0BFA0CFBABF1010B0BEA030B4AEACB
:101E20000B042146404602F02DFBBDE8F09F000068
:101E300000BF00F00702064B19684FF6FF03194078
:101E4000044B0B4343EA0221014B196000BF70476A
:101E50000CED00E00000FA0538B5002400BF204872
:101E6000006840F080501E4908600846006800F095
:101E70008050009000BF00BF1A48006840F48030D6
:101E800018490860FFF79EFD044607E0FFF79AFD3A
:101E9000001BB0F57A7F01D9032038BD1148406896
:101EA00000F48030B0F5803FF0D10E48006840F477
:101EB00000300C490860FFF785FD044607E0FFF796
:101EC00081FD001BB0F57A7F01D90320E5E70548C5
:101ED000406800F40030B0F5003FF0D10020DCE7AE
:101EE00040380240007000402DE9F84304460026C7
:101EF00000250027A846A946207800F0010088B1F7
:101F000000BFFE48006820F40000FC490860084655
:101F10000068616B0843F949086000BF606B08B94D
:101F20004FF00108206800F40020B0F5002F13D115
:101F3000F2488430006820F44010E16B0843EF4918
:101F400084310860E06BB0F5801F01D14FF00108CB
:101F5000E06B08B94FF00109206800F48010B0F57B
:101F6000801F13D1E5488430006820F44000216CC4
:101F70000843E24984310860206CB0F5800F01D13C
:101F80004FF00108206C08B94FF00109206800F0FB
:101F90008070B0F1807F01D14FF00108207800F00F
:101FA0002000202870D100BFD4483830006840F0AD
:101FB0008050D249383108600846006800F08050EF
:101FC000009000BF00BFCE48006840F48070CC494C
:101FD0000860FFF7F7FC064607E0FFF7F3FC801BFD
:101FE000642802D90320BDE8F883C548006800F4DE
:101FF00080700028F1D0C1486830006800F4407556
:1020000085B3208E00F44070A8422BD0BB486830C6
:10201000006820F44075B9486830006840F48030AA
:10202000B649683108600846006820F480300860CE
:1020300008460560006800F0010098B1FFF7C2FC97
:10204000064608E0FFF7BEFC801B41F2883188425B
:1020500001D90320C7E7A94868300068C0F34000F1
:102060000028EFD000BF208E00F44070B0F5407F14
:102070000BD1A248006820F4F810A24A216B11404D
:1020800008439E49086006E010E09C48006820F480
:10209000F8109A490860994868300068218EC1F3A9
:1020A0000B01084395496831086000BF207800F0B3
:1020B0001000102810D100BF90488430006820F034
:1020C00080708E498431086008460068A16B08431F
:1020D0008A498431086000BF208800F48040B0F550
:1020E000804F09D185488830006820F44030616E07
:1020F0000843824988310860208800F40040B0F528
:10210000004F09D17D488830006820F44020A16E3E
:1021100008437A4988310860206800F48030B0F5BF
:10212000803F09D175488830006820F44010E16E86
:102130000843724988310860206800F40030B0F527
:10214000003F09D16D488830006820F44000216FBD
:1021500008436A4988310860207800F04000402830
:1021600009D166488830006820F00300616C08439C
:10217000624988310860207800F08000802809D109
:102180005E488830006820F00C00A16C08435B4971
:1021900088310860208800F48070B0F5807F09D114
:1021A00056488830006820F03000E16C08435349FD
:1021B00088310860208800F40070B0F5007F09D1F4
:1021C0004E488830006820F0C000216D08434B491C
:1021D00088310860208800F48060B0F5806F09D1F4
:1021E00046488830006820F44070616D08434349D8
:1021F00088310860208800F40060B0F5006F09D1D4
:102200003E488830006820F44060A16D08433B4997
:1022100088310860208800F48050B0F5805F09D1D3
:1022200036488830006820F44050E16D0843334957
:1022300088310860208800F40050B0F5005F09D1B3
:102240002E488830006820F44040216E08432B4916
:1022500088310860206800F48000B0F5800F09D153
:1022600026488830006820F08060A16F0843234929
:1022700088310860206800F40010B0F5001F0FD10D
:102280001E488830006820F00060E16F08431B4959
:1022900088310860E06FB0F1006F01D14FF00109A3
:1022A000207800F00800082801D14FF001092068CB
:1022B00000F48020B0F5802F09D1104888300068E4
:1022C00020F04070616F08430C4988310860206835
:1022D00000F40000B0F5000F0AD10848883000680B
:1022E00020F08050D4F880100843044988310860F9
:1022F000206800F08060B0F1806F05E0083802408F
:1023000000700040FFFCFF0F08D1CC48006820F0AF
:102310000050D4F884100843C8490860206800F0D1
:102320000060B0F1006F0AD1C448001F006820F0BF
:102330000070D4F888100843C049091F086020685D
:1023400000F08050B0F1805F0AD1BC48001F0068E7
:1023500020F08060D4F88C100843B849091F086049
:10236000B8F1010F03D02068B0F1007F7ED1B348EF
:102370009038006820F08060B04990390860FFF71D
:1023800021FB064606E0FFF71DFB801B642801D9F0
:10239000032028E6A94890380068C0F3C0600028F0
:1023A000F1D1207800F00100B8B1606BA8B9A34862
:1023B0000C380068C0F30145A0480C380068C0F331
:1023C00003676068800140EA054040EA0761207ABF
:1023D00041EA007099490C390860206800F4002037
:1023E000B0F5002F03D1E06BB0F5801F09D0206855
:1023F00000F48010B0F5801F24D1206CB0F5800F60
:1024000020D18E480C380068C0F301458B480C3849
:102410000068C0F302776068800140EA0541207BD4
:1024200041EA006040EA077084490C39086083483B
:10243000001F006820F01F00616A491E08437F49A1
:10244000091F0860206800F08070B0F1807F17D10C
:102450007A480C380068C0F3036578480C38006887
:10246000C0F3027760688101208A00E036E041EA2B
:10247000004040EA056040EA077070490C39086086
:10248000206800F00070B0F1007F0DD1606881011C
:10249000208A41EA0041207B41EA0061207A41EA3A
:1024A000007066490C39086064489038006840F054
:1024B0008060624990390860FFF784FA064606E0BA
:1024C000FFF780FA801B642801D903208BE55B4865
:1024D00090380068C0F3C0600028F1D0B9F1010F56
:1024E0007ED156489038006820F08050534990398A
:1024F0000860FFF767FA064606E0FFF763FA801BFD
:10250000642801D903206EE54C4890380068C0F378
:1025100040700028F1D1206800F40020B0F5002FB1
:1025200001D1E06B38B1206800F48010B0F5801F55
:1025300022D1206C00BB414808380068C0F3014537
:102540003E4808380068C0F302776069800140EABD
:102550000541207E41EA006040EA077037490839AA
:102560000860081D006820F4F851A06A401E41EA86
:1025700000203249091F0860206800F40010B0F5FF
:10258000001F19D1E06FB0F1006F15D12B4808384A
:102590000068C0F30365294808380068C0F3027773
:1025A00060698101208C41EA004040EA056040EA10
:1025B0000770224908390860207800F008000828D0
:1025C00020D11E4808380068C0F303651B4808384E
:1025D0000068C0F301476069800140EA074000E0FD
:1025E0002AE040EA0561207F41EA0070134908397A
:1025F0000860081D006820F44030E16A08430F4974
:10260000091F08600D489038006840F080500B4961
:1026100090390860FFF7D6F9064606E0FFF7D2F9D1
:10262000801B642801D90320DDE404489038006849
:10263000C0F340700028F1D00020D4E4903802406C
:1026400070B504460D4600260CB9012070BD5C48EB
:10265000006800F00F00A8420ED25948006820F030
:102660000F002843564908600846006800F00F0034
:10267000A84201D00120E9E7207800F002000228FA
:102680001DD1207800F00400042805D14D480068D1
:1026900040F4E0504B490860207800F0080008281A
:1026A00005D14848006840F4604046490860454804
:1026B000006820F0F000A1680843424908602078D3
:1026C00000F0010090B36068012807D13D48083848
:1026D0000068C0F34040A0B90120B7E76068022855
:1026E00007D1384808380068C0F3406048B9012075
:1026F000ACE7344808380068C0F3400008B901204E
:10270000A4E73048006820F00300616808432D49C1
:102710000860FFF757F9064609E0FFF753F9801BF9
:1027200041F28831884202D903208FE707E025482B
:10273000006800F00C006168B0EB810FEDD120481B
:10274000006800F00F00A8420ED91D48006820F074
:102750000F0028431A4908600846006800F00F007F
:10276000A84201D0012071E7207800F0040004287D
:1027700007D11448006820F4E050E168084311498B
:102780000860207800F00800082808D10D4800688B
:1027900020F46040216940EAC1000A49086000F065
:1027A0003DF808490968C1F30311074A515CC84064
:1027B000064908600F20FFF77FFA002046E7000077
:1027C000003C02400838024030730008B802002084
:1027D0000148006870470000B802002000B5FFF70C
:1027E000F7FF04490968C1F38221034A515CC840DC
:1027F00000BD0000083802404073000800B5FFF734
:10280000E7FF04490968C1F34231034A515CC840FB
:1028100000BD000008380240407300082DE9F04771
:10282000002400250026A1462548006800F00C0081
:1028300020B1042805D008283AD105E0DFF88490BB
:1028400039E0DFF8849036E01D48001F006800F092
:102850003F041B48001F006800F4800078B11A484C
:102860001749091F0968C1F38811A0FB01700146CF
:10287000224600233846FDF7D0FF05460EE01148FA
:102880000F49091F0968C1F38811A0FB01700146B7
:10289000224600233846FDF7C0FF05460848001FC2
:1028A0000068C0F30140401C4600B5FBF6F902E0A9
:1028B000DFF8109000BF00BF4846BDE8F087000079
:1028C000083802400024F40040787D01F8B5044641
:1028D00000260CB90120F8BD207800F00100002886
:1028E00071D0F848006800F00C0004280DD0F548BD
:1028F000006800F00C00082813D1F248001F00689F
:1029000000F48000B0F5800F0BD1EE480838006865
:10291000C0F34040002869D06068002866D10120DB
:10292000D9E700BF6068B0F5803F08D1E5480838B6
:10293000006840F48030E349083908602EE06068A0
:1029400068B9E0480838006820F48030DD4908396B
:1029500008600846006820F4802008601EE0606877
:10296000B0F5A02F0DD1D7480838006840F480207A
:10297000D449083908600846006840F4803008608F
:102980000CE0D0480838006820F48030CD49083980
:1029900008600846006820F48020086000BF606876
:1029A00090B1FFF70FF8054606E0FFF70BF8401B64
:1029B000642801D903208EE7C24808380068C0F3B4
:1029C00040400028F1D011E0FEF7FCFF054606E08C
:1029D000FEF7F8FF401B642801D903207BE7B948C4
:1029E00008380068C0F340400028F1D1207800F09A
:1029F0000200022869D1B348006800F00C0058B109
:102A0000B048006800F00C0008281CD1AD48001F39
:102A1000006800F48000B0B9AA4808380068C0F324
:102A2000400020B1E068012801D0012053E7A5480B
:102A30000838006820F0F800216940EAC100A14987
:102A40000839086041E0E06828B39E48083800680B
:102A500040F001009B4908390860FEF7B3FF0546C6
:102A600006E0FEF7AFFF401B022801D9032032E742
:102A7000944808380068C0F340000028F1D091481D
:102A80000838006820F0F800216940EAC1008D494B
:102A90000839086019E08B480838006820F0010008
:102AA000884908390860FEF78DFF054606E0FEF705
:102AB00089FF401B022801D903200CE78148083810
:102AC0000068C0F340000028F1D1207800F0080031
:102AD000082836D16069D0B17A486C30006840F07F
:102AE000010078496C310860FEF76CFF054606E08E
:102AF000FEF768FF401B022801D90320EBE671486E
:102B00006C300068C0F340000028F1D019E06D4837
:102B10006C30006820F001006A496C310860FEF7F3
:102B200051FF054606E0FEF74DFF401B022801D984
:102B30000320D0E663486C300068C0F340000028F2
:102B4000F1D1207800F00400042874D15D483830B9
:102B5000006800F0805080B900BF5A4838300068E3
:102B600040F080505749383108600846006800F04E
:102B70008050009000BF00BF01265348006800F459
:102B80008070B0B95048006840F480704E490860C9
:102B9000FEF718FF054606E0FEF714FF401B642809
:102BA00001D9032097E64848006800F480700028A7
:102BB000F2D000BFA068012808D142486830006800
:102BC00040F001003F49683108602DE0A06868B915
:102BD0003C486830006820F001003A4968310860DC
:102BE0000846006820F0040008601DE0A068052881
:102BF0000DD134486830006840F004003149683134
:102C000008600846006840F0010008600CE02D48AC
:102C10006830006820F001002A49683108600846E1
:102C2000006820F00400086000BFA068A8B1FEF7AB
:102C3000C9FE054609E02EE0FEF7C4FE401B41F246
:102C40008831884201D9032045E61E486830006873
:102C5000C0F340000028EFD013E0FEF7B3FE0546B6
:102C600008E0FEF7AFFE401B41F28831884201D9EF
:102C7000032030E6134868300068C0F340000028A5
:102C8000EFD1012E07D10F483830006820F0805076
:102C90000C4938310860A069F0B30A48006800F0B8
:102CA0000C00082868D0A06902284DD105480838D2
:102CB000006820F08070034908390860FEF782FE42
:102CC00005460AE00838024000700040FEF77AFE30
:102CD000401B022801D90320FDE529480068C0F304
:102CE00040600028F2D1D4E907010843616A40EA54
:102CF00081110122A06AC2EB500041EA00412C2060
:102D0000005D41EA00613020005D41EA00701C492D
:102D1000091D0860081F00E030E0006840F0807086
:102D2000091F0860FEF74EFE054606E0FEF74AFE64
:102D3000401B022801D90320CDE511480068C0F3EB
:102D400040600028F2D019E00D48006820F0807043
:102D50000B490860FEF736FE054606E0FEF732FE38
:102D6000401B022801D90320B5E505480068C0F3DF
:102D700040600028F2D101E00120ACE50020AAE586
:102D80000038024010B504460CB9012010BD607F28
:102D900020B900202077204600F04EF8022060770E
:102DA00000BFCA202168486253202168486200BFE2
:102DB000204601F093FB40B100BFFF20216848622C
:102DC00000BF042060770120E0E72068806819498F
:102DD0000840216888602169606808436169084388
:102DE000216889680843216888602168E068086173
:102DF00020680169208941EA004021680861206853
:102E0000C06820F080002168C8602068C06C20F095
:102E100008002168C8642068C06CA1690843216863
:102E2000C86400BFFF202168486200BF01206077AE
:102E30000020ABE7BFFF8FFF054A0168914205D133
:102E40000449096841F40041024A116070470000DA
:102E500000280040703802402DE9F04104460D463C
:102E60001646002700BF207F012802D10220BDE8BE
:102E7000F0810120207700BF022060774EB968788A
:102E800000F01000102804D1687800F0EF000A303C
:102E9000687086B9E87801F014FB0304687801F0E3
:102EA00010FB43EA0023A87801F00BFB03432878CA
:102EB00043EA403709E0E8780004697840EA0120F5
:102EC000A9780843297840EA413700BFCA20216821
:102ED000486253202168486200BF204601F0FEFA94
:102EE00060B100BFFF202168486200BF0420607706
:102EF00000BF0020207700BF0120B8E71648384007
:102F0000216848602068C06820F080002168C8609F
:102F10002068806800F0200080B9204600F0B8F8F2
:102F200060B100BFFF202168486200BF04206077C5
:102F300000BF0020207700BF012098E700BFFF20DE
:102F40002168486200BF0120607700BF0020207721
:102F500000BF00BF8BE700003FFFFF002DE9F041FD
:102F600004460D461646002700BF207F012802D1E7
:102F70000220BDE8F0810120207700BF02206077A9
:102F8000CEB92068806800F0400000B102E0002067
:102F9000287300BF287801F094FA0304687801F0E0
:102FA00090FA43EA0023A87801F08BFA0343287BC8
:102FB00043EA004716E02068806800F0400020B136
:102FC000287801F073FA074602E00020287300BF5A
:102FD00028780004697840EA0120A9780843297B11
:102FE00040EA014700BFCA20216848625320216897
:102FF000486200BF204601F071FA60B100BFFF20B7
:103000002168486200BF0420607700BF002020775D
:1030100000BF0120ADE71D483840216808602068E6
:10302000806820F4802021688860D5E90401084385
:10303000216889680843216888602068C06820F09A
:1030400080002168C8602068806800F0200080B996
:10305000204600F01DF860B100BFFF2021684862E3
:1030600000BF0420607700BF0020207700BF012050
:103070007FE700BFFF202168486200BF0120607722
:1030800000BF0020207700BF00BF72E77F7F7F0076
:1030900070B5044600252068C06820F0A0002168B3
:1030A000C860FEF78FFC054607E0FEF78BFC401B6F
:1030B000B0F57A7F01D9032070BD2068C06800F0A8
:1030C00020000028F1D00020F6E7042808D14FF0B6
:1030D000E021096941F004014FF0E022116107E0AD
:1030E0004FF0E021096921F004014FF0E022116165
:1030F000704770B504462546681EB0F1807F01D345
:1031000001200FE0681E4FF0E02148610F214FF0D1
:10311000FF3001F0B7F900204FF0E021886107206F
:103120000861002070BD70477047000030B502464E
:103130000B4600BF92F83C00012801D1022030BDAF
:10314000012082F83C0000BF106841681068846864
:103150000F4D1068A84203D00E4D1068A84203D14D
:1031600021F470015868014321F07001186801438F
:1031700024F08004986804431068416010688460FB
:1031800000BF002082F83C0000BF00BFD7E700006E
:10319000000001400004014010B504460CB90120B4
:1031A00010BD94F83D0028B9002084F83C0020466A
:1031B00000F00CF8022084F83D00211D206801F089
:1031C000CBFA012084F83D000020E9E738B5044639
:1031D00017492068884216D100BF1648006840F0A1
:1031E0001000144908600846006800F010000090C4
:1031F00000BF00BF002205213620FEF7DAFD362091
:10320000FEF7CAFD13E00C49206888420FD100BFC9
:103210000848001D006840F480200649091D086028
:103220000846006800F48020009000BF00BF38BD51
:103230000010004040380240004801400146022092
:1032400081F83D000868006840F001000A681060DD
:10325000012081F83D000020704701460868C068E1
:1032600040F001000A68D0600868006840F0010082
:103270000A68106000207047704710B50446206847
:103280000069C0F34000D8B12068C068C0F34000B6
:10329000B0B16FF00200216808610120207720683A
:1032A000806900F0030018B12046FFF7E5FF05E054
:1032B000204600F023F9204600F04DFA0020207748
:1032C00020680069C0F38000D8B12068C068C0F3EE
:1032D0008000B0B16FF004002168086102202077FF
:1032E0002068806900F4407018B12046FFF7C4FFE1
:1032F00005E0204600F002F9204600F02CFA0020FC
:10330000207720680069C0F3C000D8B12068C06889
:10331000C0F3C000B0B16FF008002168086104205C
:1033200020772068C06900F0030018B12046FFF73D
:10333000A3FF05E0204600F0E1F8204600F00BFA7C
:103340000020207720680069C0F30010D8B1206801
:10335000C068C0F30010B0B16FF0100021680861C0
:10336000082020772068C06900F4407018B120461A
:10337000FFF782FF05E0204600F0C0F8204600F08D
:10338000EAF9002020772068006900F0010058B1B8
:103390002068C06800F0010030B16FF001002168C2
:1033A0000861204600F0D8F920680069C0F3C01019
:1033B00058B12068C068C0F3C01030B16FF0800011
:1033C000216808612046FFF7AEFE20680069C0F35F
:1033D000002058B12068C068C0F3C01030B16FF051
:1033E0008000216808612046FFF79DFE2068006983
:1033F000C0F3801058B12068C068C0F3801030B1AD
:103400006FF0400021680861204600F0D9F920687B
:103410000069C0F3401058B12068C068C0F3401084
:1034200030B16FF02000216808612046FFF77CFE74
:1034300010BD000010B586B00446094920688842D6
:103440000CD1802001900220029000200390049073
:103450000320059001A90348FEF7A2F906B010BDAC
:10346000004801400014024070B504460E4615465F
:1034700000BF94F83C00012801D1022070BD01205A
:1034800084F83C0000BF022084F83D000C2D1AD0C7
:1034900005DC4DB1042D0CD0082D23D10EE0102DEC
:1034A00016D0142D1ED118E03146206801F0CCF959
:1034B00019E03146206801F001FA14E03146206835
:1034C00001F03AFA0FE03146206801F073FA0AE0A1
:1034D0003146206801F0A0FA05E03146206801F08D
:1034E000C7FA00E000BF00BF012084F83D0000BF24
:1034F000002084F83C0000BF00BFBFE7704710B554
:1035000004460CB9012010BD94F83D0028B90020F4
:1035100084F83C00204600F00DF8022084F83D00BD
:10352000211D206801F018F9012084F83D000020D9
:10353000E9E7000038B504462068B0F1804F16D1A5
:1035400000BF1848006840F00100164908600846AE
:10355000006800F00100009000BF00BF00220521BC
:103560001C20FEF726FC1C20FEF716FC19E00E4975
:103570002068884215D100BF0A48006840F0080062
:10358000084908600846006800F00800009000BF85
:1035900000BF002205213220FEF70BFC3220FEF78F
:1035A000FBFB38BD40380240000C004070B50446BB
:1035B0000D46164600BF94F83C00012801D10220B8
:1035C00070BD012084F83C0000BF022084F83D005B
:1035D0000C2E51D005DC4EB1042E1ED0082E7AD10F
:1035E00033E0102E60D0142EF9D175E02946206802
:1035F00001F02AF92068806940F00800216888619C
:103600002068806920F00400216888612068806952
:10361000296908432168886177E02946206801F01C
:103620004DF92068806940F4006021688861206855
:10363000806920F480602168886120688069296938
:1036400040EA0120216888615FE02946206801F096
:1036500073F92068C06940F008002168C8612068DB
:10366000C06920F004002168C8612068C069296928
:1036700008432168C86148E02946206801F09AF9AA
:103680002068C06940F400602168C8612068C06992
:1036900020F480602168C8612068C069296940EA17
:1036A00001202168C86130E02946206801F0B4F9A2
:1036B0002068406D40F00800216848652068406D32
:1036C00020F00400216848652068406D296908439E
:1036D0002168486519E017E02946206801F0C8F91B
:1036E0002068406D40F40060216848652068406DA6
:1036F00020F48060216848652068406D296940EAAF
:1037000001202168486500E000BF00BF012084F867
:103710003D0000BF002084F83C0000BF00BF4FE721
:1037200010B504460CB9012010BD94F83D0028B92D
:10373000002084F83C00204600F00CF8022084F8B9
:103740003D00211D206801F007F8012084F83D00AC
:103750000020E9E77047704738B504460020009024
:103760001349206888420ED169461248006803F068
:10377000A9FA009838B14FF080500F490860BFF3A4
:103780004F8FBFF36F8F2068B0F1804F0ED1694625
:103790000A48006803F096FA009838B14FF080505C
:1037A00005490860BFF34F8FBFF36F8F38BD00002E
:1037B000000C00406002002004ED00E068020020E0
:1037C000704770472DE9F04104462068C5692068BC
:1037D00006682068876805F00F08B8F1000F0AD165
:1037E00005F0200038B106F0200020B1204601F09D
:1037F0008FFABDE8F081B8F1000F7BD007F001002F
:1038000018B906F49070002874D005F0010048B192
:1038100006F4807030B1012021680862E06E40F04B
:103820000100E06605F0020048B107F0010030B188
:10383000022021680862E06E40F00400E06605F0B6
:10384000040048B107F0010030B10420216808628B
:10385000E06E40F00200E06605F0080060B106F09E
:10386000200010B907F0010030B10820216808627B
:10387000E06E40F00800E066E06E58B305F020000E
:1038800028B106F0200010B1204601F041FAE06EA8
:1038900000F0080020B92068806800F0400018B3EC
:1038A000204601F00BFA2068806800F04000B8B1B3
:1038B0002068806820F0400021688860606E50B108
:1038C0001748616E0865606EFDF74AFD10B1606EC5
:1038D000016D88470DE02046FFF773FF09E009E01E
:1038E0002046FFF76EFF04E02046FFF76AFF002046
:1038F000E0667EE705F0800030B106F0800018B188
:10390000204601F00FFC74E705F0400030B106F0EE
:10391000400018B1204601F0E1F96AE700BF68E70E
:10392000114C000810B504460CB9012010BDA06967
:1039300000B100E000BF94F8690028B9002084F8C5
:103940006800204600F02AF8242084F869002068E6
:10395000006820F0010021680860204601F01CFA90
:10396000012800D1E2E7606A10B1204601F0B4F806
:103970002068406820F49040216848602068806892
:1039800020F02A00216888602068006840F001006B
:1039900021680860204601F014F9C7E710B586B029
:1039A00004464C492068884225D100BF4A48006837
:1039B00040F48010484908600846006800F4801010
:1039C000009000BF00BF4FF44050019002200290D1
:1039D00000200390032004900820059001A93F488F
:1039E000FDF7DEFE002205213520FEF7E2F9352045
:1039F000FEF7D2F96BE03A49206888421DD100BF3A
:103A00003548006840F48020334908600846006863
:103A100000F48020009000BF00BF4FF44070019080
:103A200002200290002003900320049007200590BC
:103A300001A92C48FDF7B4FE49E02B4920688842D3
:103A400045D100BF2448001D006840F020002249F5
:103A5000091D08600846006800F02000009000BFC3
:103A600000BFC0200190022002900020039003209C
:103A700004900820059001A91C48FDF791FE1C4800
:103A80001C4908604FF0206048604021194881605F
:103A90000021C1604FF480610161002141618161B9
:103AA000C16101624162FDF78FFD18B1D62112A0FC
:103AB00001F0AEFB00BF0F482066846300BF002208
:103AC00005214720FEF775F94720FEF765F906B096
:103AD00010BD000000500040403802400004024089
:103AE00000480040000C0240001401400008024061
:103AF000A0640240640C00202E2E2F5372632F7599
:103B0000736172742E63000010B5034693F86A0067
:103B1000202855D101B10AB9012010BD00BF93F88A
:103B20006800012801D10220F7E7012083F868002E
:103B300000BF5965A3F85820A3F85A2000BF986821
:103B4000B0F5805F0AD1186920B940F2FF10A3F8E0
:103B50005C001CE0FF20A3F85C0018E0986848B9FE
:103B6000186918B9FF20A3F85C0010E07F20A3F8C3
:103B70005C000CE09868B0F1805F08D1186918B952
:103B80007F20A3F85C0002E03F20A3F85C0000BFA8
:103B90000020D866222083F86A0000BF002083F846
:103BA000680000BF1868806840F001001C68A060D1
:103BB0001868006840F490701C6820600020ACE732
:103BC0000220AAE710B5044603492068884201D1C3
:103BD00000F0A4FC10BD0000001401402DE9F843E2
:103BE00004460D4616461F464FF0000994F869003A
:103BF000202854D105B116B90120BDE8F88300BFD3
:103C000094F86800012801D10220F6E7012084F829
:103C1000680000BF00205034E06121206076FDF78D
:103C2000D1FE814626806680503C21E0B4F85200E7
:103C3000401EA4F852004B460022802120460097E7
:103C400001F0A5FA08B10320D7E7A068B0F5805FBE
:103C50000AD1206940B9A846B8F80000C0F30800AE
:103C600021688862AD1C03E015F8010B21688862A9
:103C7000B4F852000028D9D14B46002240212046FA
:103C8000009701F084FA08B10320B6E7202084F8F9
:103C9000690000BF002084F8680000BFADE7022083
:103CA000ABE70000F7B50446154694F869002028F4
:103CB0003FD1019800B10DB90120FEBD00BF94F8BD
:103CC0006800012801D10220F7E7012084F868008C
:103CD00000BF0198E064A4F85050A4F852500020AE
:103CE000E066212084F869001348216EC8631348F8
:103CF000216E08641248216EC8640020216E086598
:103D000001AE236803F1280231682B46206EFDF7CF
:103D1000D1FC40202168086200BF002084F86800C0
:103D200000BF2068806840F0800021688860002023
:103D3000C3E70220C1E70000774C0008AF4C000841
:103D4000294C00087047704708B5002012490860E8
:103D50001249086012490860124908604860202032
:103D60001149086004201149086011481149086090
:103D70001148124908600C480068114B114A1D2176
:103D800000901148FCF7D4FC1048FDF761FA104888
:103D9000FFF754FA08BD000024020020140200209E
:103DA000180200201C0200203002002034020020F3
:103DB0002003002028020020200500202C020020E3
:103DC00020070020A072000810080020B40800207E
:103DD000940A002000BFFEE710B50248FDF762FE1E
:103DE00010BD0000FC0800201FB5194819490860E3
:103DF0004FF4803048600102164881600121016162
:103E00000021816101624FF00051C1624FF05061A9
:103E100081620021C1600121C16100210163012192
:103E20004161FDF7AFF918B152210BA001F0F0F993
:103E30000D20009001200190002002906946054865
:103E4000FCF7DAFF18B15C2103A001F0E1F91FBD16
:103E500000200140B40800202E2E2F5372632F61E2
:103E600064632E630000000008B500BF15480068B9
:103E700040F40010134908600846006800F4001080
:103E8000009000BF00BF00BF0846006840F48000FB
:103E900008600846006800F48000009000BF00BF82
:103EA000002205210D20FDF784FF0D20FDF774FF92
:103EB000002205214520FDF77CFF4520FDF76CFF22
:103EC00008BD00003038024000B585B01422064914
:103ED0006846FCF7D3FC0021684601F0C5FB0349A6
:103EE000086005B000BD00001473000858020020EF
:103EF00000B587B000BF3D48006840F004003B4972
:103F000008600846006800F00400019000BF00BF90
:103F100000BF0846006840F02000086008460068BE
:103F200000F02000019000BF00BF00BF08460068FD
:103F300040F0800008600846006800F080000190B2
:103F400000BF00BF00BF0846006840F002000860E4
:103F50000846006800F00200019000BF00BF00BFEB
:103F60000846006840F0080008600846006800F055
:103F70000800019000BF00BF00224FF481411C489F
:103F8000FDF71AFD4FF4005002901A4803900020EC
:103F9000049002A91848FDF703FC4FF481400290F9
:103FA0000120039000200490059002A91048FDF71D
:103FB000F7FB012002900F4803900020049002A913
:103FC0000E48FDF7EDFB002205210620FDF7F1FE6E
:103FD0000620FDF7E1FE002205212820FDF7E9FE7D
:103FE0002820FDF7D9FE07B000BD000030380240A0
:103FF000000402400000111000080240000C0240C2
:1040000010B5154815490860154848600021134847
:1040100081600121C1600021016141618161C16153
:104020000162FDF74DFD18B14F210EA001F0F0F82F
:1040300000210A48FDF7CCFC18B1562109A001F077
:10404000E7F800210548FDF7F8FC18B15D2105A04F
:1040500001F0DEF810BD000000580040FC08002010
:10406000684740202E2E2F5372632F6932632E63D0
:104070000000000010B51548154908601548486053
:10408000B421134881600121C160002101614161B7
:104090008161C1610162FDF713FD18B170210EA0AD
:1040A00001F0B6F800210A48FDF792FC18B177211B
:1040B00009A001F0ADF800210548FDF7BEFC18B1DC
:1040C0007E2105A001F0A4F810BD000000600040B2
:1040D00048090020684740202E2E2F5372632F6915
:1040E00032632E630000000000B587B020482149EC
:1040F0000860002048607F211E488160F921C1606E
:104100000021016141618161FEF73CFE18B14C2143
:1041100019A001F07DF808208DF804001E208DF80C
:10412000050000208DF8060005900690002201A9E8
:104130001048FEF713FF18B158210FA001F068F8DE
:1041400002208DF8000012208DF8010001208DF86A
:10415000020014208DF80300002269460548FEF78E
:104160007BFE18B1622104A001F052F807B000BD37
:1041700000280040F40900202E2E2F5372632F7266
:1041800074632E630000000000B587B01848194919
:1041900008600020486000211648816040F24551C7
:1041A000C160002101618161FEF7F6FF18B1A6210F
:1041B00011A001F02DF80F48FFF7B2FA18B1AB21AA
:1041C0000DA001F025F860200090002001900290E1
:1041D0000490002269460748FFF7E8F918B1B421B6
:1041E00005A001F015F80348FFF724F907B000BD5A
:1041F00000480140D40A00202E2E2F5372632F74E2
:10420000696D2E630000000000B58BB04FF0804058
:10421000184908600320486000211648816016494B
:10422000C160002101618161FFF769F918B14C217A
:1042300012A000F0EDFF2020089000200A9008A9AD
:104240000C48FEF773FF18B153210CA000F0E0FFFB
:1042500000200190029003900590002201A90548DA
:10426000FFF702F918B15C2104A000F0D1FF0BB0F8
:1042700000BD0000140A0020FF791EC12E2E2F530E
:1042800072632F74696D2E630000000000B58BB05F
:1042900018481949086003204860002116488160C9
:1042A0001649C160002101618161FFF728F918B149
:1042B0006E2113A000F0ACFF2020089000200A908F
:1042C00008A90D48FEF732FF18B175210CA000F0C7
:1042D0009FFF00200190029003900590002201A909
:1042E0000548FFF7C1F818B17E2105A000F090FF46
:1042F0000BB000BD000C0040540A0020FF791EC125
:104300002E2E2F5372632F74696D2E6300000000F0
:104310000EB51148114908604720486000210F4838
:1043200081604EF65F21C16000218161FEF734FF9C
:1043300018B18E210AA000F06BFF20200090002011
:10434000029069460548FEF7F1FE18B1952104A0D8
:1043500000F05EFF0EBD000000100040940A002037
:104360002E2E2F5372632F74696D2E630000000090
:1043700010B50E480E4908604FF4165048600021F1
:104380000B488160C16001610C21416100218161A4
:10439000C16101620020064948620846FFF7C2FA7F
:1043A00018B1512103A000F033FF10BD00500040B0
:1043B000140B00202E2E2F5372632F7573617274AD
:1043C0002E63000010B50E480E4908604FF41650D9
:1043D000486000210B488160C16001610C2141618E
:1043E00000218161C16101620020064948620846DE
:1043F000FFF798FA18B1662103A000F009FF10BD7D
:1044000000480040840B00202E2E2F5372632F751E
:10441000736172742E63000010B50E480E49086077
:104420004FF41650486000210B488160C160016163
:104430000C21416100218161C161016200200649B6
:1044400048620846FFF76EFA18B17B2103A000F01E
:10445000DFFE10BD00140140F40B00202E2E2F5360
:1044600072632F75736172742E63000000BFFEE7E4
:104470007047000002480068C0F302207047000047
:104480000CED00E010B5002807DA0A07140E054A03
:1044900000F00F031B1FD45403E00A07130E024A57
:1044A000135410BD18ED00E000E400E0014600BF29
:1044B000080900EB8000420001F00F001044C0B278
:1044C00070470146002203E0521CA1F10A00C1B26C
:1044D0000A29F9DA100741EA1060704770B50446FE
:1044E00000252068C06800F04000A0B9681E21685F
:1044F000C860FDF767FA054607E0FDF763FA401B61
:10450000B0F57A7F01D9032070BD2068C06800F043
:1045100040000028F1D00020F6E7000008B5002098
:104520000090154800780D2816D100236A461349DB
:104530001348006802F03AFB69461248006802F02E
:10454000C1FB009838B14FF080500F490860BFF3AD
:104550004F8FBFF36F8F07E000236A460649084874
:10456000006802F023FB00BF00BF01220249074898
:10457000FFF7CAFA08BD00003802002054020020EC
:104580008C0200205C02002004ED00E0F40B00200F
:1045900000BF012001F04FF8FBE710B5FDF774FBF9
:1045A00001F05AF810BD000010B5B8B000BF3E4889
:1045B000006840F080503C4908600846006800F000
:1045C0008050019000BF00BF00BF3848006840F431
:1045D0004040364908600846006800F440400190B9
:1045E00000BF00BF0A202B9001202E9010202F909A
:1045F000012030900220319000212BA8C1610821B8
:104600000162D821416202218162C162FEF75EF936
:1046100020B140F2531126A000F0FAFDFDF71CFC7A
:1046200020B14FF4AD7122A000F0F2FD0F202690D2
:1046300002202790002028904FF4A05029904FF49A
:1046400080502A90072126A8FDF7FAFF20B14FF4E9
:10465000B47117A000F0DCFD194802904FF400700F
:104660000E9000201590179018901C901E9002A894
:10467000FDF73AFC20B14FF4BB710DA000F0C8FD6E
:10468000FEF7A6F84FF47A71B0FBF1F42046FEF77E
:1046900030FD0420FEF719FD00220F21501EFDF70A
:1046A00088FB38B010BD0000403802400070004068
:1046B0002E2E2F5372632F6D61696E2E63000000E2
:1046C000208D02001448006840F470001249086010
:1046D0001248006840F001001049086000200F49AE
:1046E000083108600D4800680D4908400B49086012
:1046F0000C48091D0860081F006820F48020091F6D
:104700000860002005490C3108604FF00060024944
:10471000803908607047000088ED00E000380240F2
:10472000FFFFF6FE1030002410B50248FEF7A5FD8D
:1047300010BD0000140A002010B50248FEF79DFDD0
:1047400010BD0000540A002010B50248FEF795FD88
:1047500010BD0000940A002010B5002202682F4B03
:1047600098420ED0B0F1804F0BD02D4B984208D01C
:104770002C4B984205D02C4B984202D02B4B9842A0
:1047800001D1012300E000231BB122F070024B682D
:104790001A43224B984220D0B0F1804F1DD0204BBD
:1047A00098421AD01F4B984217D01F4B984214D0F2
:1047B0001E4B984211D01E4B98420ED01D4B984272
:1047C0000BD01D4B984208D01C4B984205D01C4B77
:1047D000984202D01B4B984201D1012300E00023F4
:1047E0001BB122F44072CB681A4322F080034C695B
:1047F00043EA040202608B68C3620B688362074B62
:10480000984202D0094B984201D1012300E00023D5
:104810000BB10B6903630123436110BD000001402C
:104820000004004000080040000C0040000401406B
:104830000040014000440140004801400018004091
:10484000001C00400020004030B50024002200235E
:10485000056A25F001050562026A43688469144D02
:104860002C4024F003040D682C4322F002028D68D2
:104870002A43104DA84202D00F4DA84201D1012574
:1048800000E000256DB122F00802CD682A4322F035
:10489000040223F4807323F400734D692B438D6964
:1048A0002B43436084614D684563026230BD000064
:1048B0008FFFFEFF000001400004014030B50024DE
:1048C00000220023056A25F010050562026A43688C
:1048D0008469164D2C4024F440740D6844EA052484
:1048E00022F020028D6842EA0512114DA84202D042
:1048F000104DA84201D1012500E0002585B122F02C
:104900008002CD6842EA051222F0400223F480635F
:1049100023F400634D6943EA85038D6943EA850307
:10492000436084614D688563026230BDFF8FFFFE86
:10493000000001400004014030B5002400220023A3
:10494000056A25F480750562026A4368C469164DDC
:104950002C4024F003040D682C4322F400728D686F
:1049600042EA0522114DA84202D0114DA84201D1C0
:10497000012500E0002585B122F40062CD6842EAFD
:10498000052222F4806223F4805323F400534D69FE
:1049900043EA05138D6943EA05134360C4614D681A
:1049A000C563026230BD00008FFFFEFF00000140C2
:1049B0000004014030B5002200230024056A25F4DC
:1049C00080550562036A4468C269104D2A4022F48A
:1049D00040720D6842EA052223F400538D6843EAD1
:1049E00005330B4DA84202D00A4DA84201D1012542
:1049F00000E0002525B124F480444D6944EA851483
:104A00004460C2614D680564036230BDFF8FFFFEE4
:104A1000000001400004014030B5002400220023C2
:104A2000056A25F480350562026A4368446D0D4DC0
:104A30002C400D682C4322F400320D8942EA0542D5
:104A4000094DA84202D0094DA84204D123F4803375
:104A50004D6943EA0523436044654D6885650262FC
:104A600030BD00008FFFFEFF000001400004014048
:104A700030B5002400220023056A25F48015056264
:104A8000026A4368446D0D4D2C400D6844EA0524CC
:104A900022F400120D8942EA0552094DA84202D0C3
:104AA000084DA84204D123F480234D6943EA8523AD
:104AB000436044654D68C565026230BDFF8FFFFEEF
:104AC000000001400004014010B50248FEF77AFEE4
:104AD00010BD0000140B002090F8241001F001011B
:104AE00039B10168496821F40031826A11430268D2
:104AF000516090F8241001F0020139B10168496851
:104B000021F48031C26A11430268516090F8241088
:104B100001F0040139B10168496821F48021026B78
:104B200011430268516090F8241001F0080139B176
:104B30000168496821F40041426B114302685160E9
:104B400090F8241001F0100139B10168896821F44E
:104B50008051826B11430268916090F8241001F03B
:104B6000200139B10168896821F40051C26B1143F9
:104B70000268916090F8241001F0400199B1016839
:104B8000496821F48011026C114302685160016C84
:104B9000B1F5801F07D10168496821F4C001426C5A
:104BA00011430268516090F8241001F0800139B17E
:104BB0000168496821F40021826C11430268516048
:104BC000704738B5044600250020E066FCF7FAFE81
:104BD00005462068006800F0080008280CD16FF036
:104BE0007E402B4600224FF400110090204600F03A
:104BF000CEFA08B1032038BD202084F8690084F87B
:104C00006A0000BF002084F8680000BF00BFF2E720
:104C100070B50546AC6B0020A4F85A00A4F8520009
:104C20002046FEF7CEFD70BD70B50546AC6B00208A
:104C3000523420812080E07D523C212807D1206819
:104C4000806800F0800010B1204600F057F894F81A
:104C50006A00222807D12068806800F0400010B167
:104C6000204600F02BF8E06E40F01000E066204691
:104C7000FEF7A7FD70BD70B50546AC6B28680068EF
:104C800000F4807078B90020A4F852002068806891
:104C900020F08000216888602068006840F04000B3
:104CA0002168086002E02046FFF74CF870BD70B53F
:104CB0000446A56B2846FFF746F870BD01680968F1
:104CC00021F49071026811600168896821F0010186
:104CD00002689160202180F86A10704710B5044680
:104CE0002068006820F0400021680860202084F8D7
:104CF00069002046FFF726F8002010BD016809680A
:104D000021F0C00102681160202180F8691070470D
:104D100070B50446B4F85C6094F86A00222833D178
:104D2000A068B0F5805F0AD1206940B9656D206840
:104D3000406A30402880606D801C606507E0206814
:104D4000406AF1B20840626D511C61651070B4F8A0
:104D50005A00401E80B2A4F85A0098B92068006832
:104D600020F49070216808602068806820F00100BD
:104D700021688860202084F86A002046FEF722FF20
:104D8000002070BD0020FCE72068806940F008002A
:104D9000216888610220F4E72DE9F04704460025E8
:104DA00010260027A846A9462169A0680843616922
:104DB0000843E16940EA010520680068CD490840E0
:104DC0002843216808602068406820F44050E1686A
:104DD000084321684860216AA06940EA010520680B
:104DE000806820F4306028432168886000BFC24991
:104DF0002068884215D1C148006800F0030030B136
:104E0000012808D0022804D0032808D105E0012693
:104E100006E0022604E0042602E0082600E000BFC7
:104E2000C1E0B7492068884215D1B448006800F055
:104E30000C0030B1042808D0082804D00C2808D170
:104E400005E0002606E0022604E0042602E008262B
:104E500000E000BFA7E0AB492068884215D1A74811
:104E6000006800F0300030B1102808D0202804D0AD
:104E7000302808D105E0002606E0022604E00426DA
:104E800002E0082600E000BF8DE09F4920688842CC
:104E900015D19A48006800F0C00030B1402808D011
:104EA000802804D0C02808D105E0002606E00226AC
:104EB00004E0042602E0082600E000BF73E0934906
:104EC0002068884218D18D48006800F4407048B1CD
:104ED000B0F5807F0AD0B0F5007F05D0B0F5407FF7
:104EE00008D105E0002606E0022604E0042602E0E0
:104EF000082600E000BF56E085492068884218D1A6
:104F00007E48006800F4406048B1B0F5806F0AD078
:104F1000B0F5006F05D0B0F5406F08D105E001266F
:104F200006E0022604E0042602E0082600E000BFB6
:104F300039E078492068884218D17048006800F448
:104F4000405048B1B0F5805F0AD0B0F5005F05D0A1
:104F5000B0F5405F08D105E0002606E0022604E037
:104F6000042602E0082600E000BF1CE06A49206831
:104F7000884218D16148006800F4404048B1B0F55B
:104F8000804F0AD0B0F5004F05D0B0F5404F08D1A2
:104F900005E0002606E0022604E0042602E00826DA
:104FA00000E000BF00BF00BFE069B0F5004F52D184
:104FB000042E2BD005DC4EB1012E12D0022E3BD197
:104FC0001AE0082E2DD0102E36D136E0FDF706FC63
:104FD0004000616800EB5100B0FBF1F01FFA80F86F
:104FE0002EE0FDF70BFC4000616800EB5100B0FBC8
:104FF000F1F01FFA80F823E04849606801EB5000A7
:105000006168B0FBF1F01FFA80F819E0FDF706FCCB
:105010004000616800EB5100B0FBF1F01FFA80F82E
:105020000EE04FF48031606801EB50006168B0FB26
:10503000F1F01FFA80F803E000BF4FF0010900BF54
:1050400000BF4FF6F07008EA0007C8F342000743BC
:105050002068C7604AE0042E2CD005DC4EB1012E3A
:1050600012D0022E3DD11AE0082E2ED0102E38D1AB
:1050700038E0FDF7B3FB616800EB5100B0FBF1F0E5
:1050800080B22168C86030E0FDF7B8FB616800EBD2
:105090005100B0FBF1F080B22168C86025E02049E2
:1050A000606801EB50006168B0FBF1F080B22168EC
:1050B000C8601AE0FDF7B2FB616800EB5100B0FB7D
:1050C000F1F080B22168C8600FE04FF400416068E1
:1050D00001EB50006168B0FBF1F080B22168C8605C
:1050E00003E000BF4FF0010900BF00BF4846BDE824
:1050F000F0870000F369FFEF001001409038024094
:105100000044004000480040004C00400050004077
:105110000014014000780040007C00400048E80195
:105120000024F400014691F8690021282DD1B1F83E
:10513000520068B90868006820F080000B681860A9
:105140000868006840F040000B6818600020704755
:105150008868B0F5805F0BD1086948B9CA6C1088BF
:10516000C0F308000B689862C86C801CC86405E036
:10517000CB6C581CC86418780B689862B1F8520060
:10518000401EA1F852000020E1E70220DFE72DE9F0
:10519000F04104460D4617469846069E21E0701CD5
:1051A000F8B12EB1FCF70EFCA0EB0800B04218D30A
:1051B0002068006820F4D07021680860206880684A
:1051C00020F0010021688860202084F8690084F8BC
:1051D0006A0000BF002084F8680000BF0320BDE81B
:1051E000F0812068C0692840A84201D1012000E078
:1051F0000020B842D3D00020F1E7000010B50248EB
:10520000FEF7E0FA10BD0000F40B002000BFFEE73F
:1052100000BFFEE7004870471C03002002E008C8FA
:10522000121F08C1002AFAD170477047002001E020
:1052300001C1121F002AFBD1704700001FB58EB0BC
:10524000149C0EA8FBF74AFB0D281DD10FA101A845
:10525000FBF74BFB0EA901A8FBF734FB0EA101A83D
:10526000FBF730FB0DA101A8FBF72CFB01A8FBF716
:10527000A9FD4FF0FF33322201A90948FEF7AEFC29
:1052800010B9012012B010BD0020FBE741542B43A0
:10529000504257203D312C002C0000000D0A000028
:1052A000140B00200B4840680A490968401A00EEB8
:1052B000100AB8EEC00B9FED081B20EE010B9FED0E
:1052C000081B81EE002BB7EEC20B074880ED000AE9
:1052D000704700001C0200207B14AE47E17A943F27
:1052E0000000000000004E400C02002010B586B007
:1052F0001948FBF703FB04461848844224DD18488C
:10530000844221DA022217A11748FEF7CBFC17A12D
:1053100002A8FBF7D7FA104902A8FBF7D3FA00233B
:105320005A1E19461348006801F01EFA0520009025
:1053300002A80FC8FFF782FF00231A4619460D483E
:10534000006801F047FB04E002220BA10648FEF7CB
:10535000A9FC06B010BD00003A08002000E9A43501
:10536000FFC99A3B4F4B0000F40B00202B33353123
:1053700000000000880200204E4F000010B50024FD
:1053800013E00C48006860430B4B1B6803EB800282
:10539000084800686043094B1B6803EB800105481F
:1053A00003680748FAF7A2FF641C064800688442B5
:1053B000E7D310BD300200202C020020280200207C
:1053C0001008002034020020034890ED000ABDEED2
:1053D000C00A10EE100A70470C020020084800684E
:1053E00020B90748406808B90020704704480068A1
:1053F00003494968884201DD0020F6E70120F4E70F
:105400001C02002010B5012001F065F90649086072
:10541000012001F060F905490860012001F05BF905
:105420000349086010BD00007C02002080020020BB
:105430008402002010B5032001F05EF90A490860DB
:10544000084601680948006801F032F90648016819
:105450000748006801F02CF9034801680548006816
:1054600001F026F910BD0000A802002090020020E3
:105470009C020020A002002010B500220121202063
:1054800001F044F91649086000220421012001F0CE
:105490003DF91449086000220421012001F036F989
:1054A0001149086000220421802001F02FF90F49E2
:1054B000086000220421012001F028F90C4908604D
:1054C000002210211E2001F021F90A490860002263
:1054D00006211E2001F01AF90749086010BD0000DE
:1054E0008C020020940200209002002098020020EC
:1054F0009C020020A0020020A402002010B503227C
:105500000021012001F002F919490860032200215D
:10551000012001F0FBF81749086003220021012057
:1055200001F0F4F81449086003220021012001F081
:10553000EDF81249086003220021012001F0E6F88D
:105540000F49086003220021012001F0DFF80D4916
:10555000086003220021012001F0D8F80A49086000
:1055600003220021012001F0D1F80849086010BD94
:105570005C0200206002002064020020680200201B
:105580006C020020740200207802002070020020CB
:105590001CB50020022103468A02CDE9001002A1B9
:1055A000024801F05DFC1CBD48520000BD630008CC
:1055B00010B500231A4619460248006801F00AFA9D
:1055C00010BD000064020020FFF798FFFFF71AFFEC
:1055D000FFF752FFFFF72EFFFCF762FBFEF7E4FF39
:1055E000FEF786FCFEF740FCFEF7FEFBFEF708FD2B
:1055F000FEF740FDFEF778FDFEF706FEFEF746FEDD
:10560000FEF786FEFEF7C0FDFEF7B2FEFEF704FFD2
:10561000FEF7D8FEFEF798FBFFF7BAFFFEF754FC43
:1056200000F015F800BFFEE701460020842901D0F4
:10563000CA1C1044704770B5044625460DB1294672
:1056400000E00121084600F00DFE002070BD10B5FD
:1056500000F006FF002010BD10B501F031FC01285C
:1056600001D001F009F810BDFEB504460D46B4F9AD
:105670000800FFF7D9FF064602A8CDE90060238A9B
:105680009AB22B46D4E9001001F0EAFB012801D0C0
:105690000020FEBD0298FCE72DE9F04105460E46CC
:1056A0001C4807681C480068001D00F0A5FC50B9A4
:1056B0001948006890F82C100120884017490968A3
:1056C000814316480160681C38B936B11248016838
:1056D000091D134800F0CEFC1AE07C190E48006842
:1056E0004460BC4207D20C480168091D0D4800689F
:1056F00000F0A6FC0CE008480168091D0A48006893
:1057000000F09EFC09480068844201D2074804600A
:10571000BDE8F081F4020020E0020020F802002041
:1057200060E20120E8020020E402002010030020D3
:1057300010B5044600F0AAFC23480068401C22492A
:1057400008602248006840B92048046008460068A4
:1057500001280DD100F0A0F90AE01D48006838B911
:105760001A480068C06AE16A884201D81748046094
:1057700018480068401C1749086094F82C10012054
:10578000884015490968084313490860E16A01EB3C
:105790008101124A02EB8100211D00F06BFC00F038
:1057A000A3FC0B48006868B108480068C06AE16A59
:1057B000884207D24FF0805009490860BFF34F8FED
:1057C000BFF36F8F10BD0000F0020020E002002048
:1057D000FC0200200C030020F802002084E10120DC
:1057E00004ED00E070B523E000F082FE134800688D
:1057F00008B9012000E00020054601F0CDFCBDB94C
:1058000000F044FC0D48C068C468201D00F0F4FBA3
:105810000B480068401E0A4908600A480068401E9C
:105820000849086000F060FC204600F060F800BF06
:10583000044800680028D7D170BD00004CE2012068
:10584000F0020020EC02002070B504460D46206CEA
:1058500070B1216CE0680844E0606168E0688842EB
:1058600001D32068E0602846226CE168FBF706F867
:1058700070BD2DE9F04104460F4615464FF0000873
:10588000A66B206C40B9206860BB606801F0CEFB5D
:1058900080460020606025E07DB93946226CA06812
:1058A000FAF7ECFF216CA0680844A060D4E901106D
:1058B000884217D32068A06014E03946226CE06863
:1058C000FAF7DCFF216CE068401AE0602168E068CC
:1058D000884203D2216C6068401AE060022D01D139
:1058E00006B1761E701CA0634046BDE8F08110B57D
:1058F0000446206B00F018FC204600F015FC10BD9B
:1059000030B5174B174800F007042CB1C01D20F02C
:105910000700144C041B1B1B0246134C226000247E
:10592000114D6C60D018083820F007000F4C206033
:1059300000240E4D2D686C600C4D2D682C601146B6
:10594000441A4C60094C24680C60094D4C682C606A
:10595000084D4C682C604FF00044074D2C6030BD62
:10596000C0D40100C40C0020BC020020C4020020EE
:10597000CC020020C8020020D002002000BFFFF7A8
:1059800031FF064800680128F9D94FF080500449DA
:105990000860BFF34F8FBFF36F8FF0E784E1012002
:1059A00004ED00E010B504464CB1002060602060BA
:1059B000E06000231A461946204601F00BF810BD9E
:1059C0002DE9F04106460D4617469846069C0DB94E
:1059D000246000E02760E66325640121204600F092
:1059E000ABFF0020A064BDE8F0812DE9FF5F814698
:1059F0000F469246DDE90E6B109CAAF10100216B67
:105A000001EB800828F0070808F0070008B901201A
:105A100000E0002060B900BF502072B680F311880A
:105A2000BFF34F8FBFF36F8F62B600BF00BFFEE7BB
:105A3000002507E0795D04F134004155785D00B937
:105A400002E06D1C102DF5D300BF0021432001554D
:105A5000072E00D30626E66266640020A064201D9F
:105A600000F0EBFA04F1180000F0E7FA2461C6F147
:105A70000700A06164620020E06484F85000494699
:105A80004046039A00F014FA2060BBF1000F01D0E9
:105A9000CBF80040BDE8FF9F10B5002407E004EB01
:105AA00084010F4A02EB810000F0BAFA641C072C53
:105AB000F5D30C4800F0B4FA0B4800F0B1FA0B48EB
:105AC00000F0AEFA0A4800F0ABFA0A4800F0A8FA73
:105AD00004480949086004480849086010BD0000EE
